:0200000480007A
:100000006F00804A6F00C02A6F0000496F00C0482F
:100010006F0080486F0040486F0000486F00C04785
:100020006F0080476F0040476F0000476F00C04679
:100030006F0080466F0040466F0000466F00C0456D
:100040006F0080456F0040456F0000456F00C04461
:100050006F0080446F0040446F0000446F00C04355
:100060006F0080436F0040436F0000436F00C04249
:100070006F0080426F0040426F0000426F000053EB
:1000800097210100938181B417010300130181F7C7
:1000900017050000130505F713651500731055309B
:1000A000138501F4138601253306A640930500004D
:1000B000EF30506517450000130545DFEF20903203
:1000C000EF30D05413050000930500001306000024
:0C00D000EF0000016F205032678000003C
:1000E000130101812326117E2324817E2322917E08
:1000F0002320217F232E317D93060000130101FD73
:10010000130600009305000013050020EF10507443
:10011000630A05161304050017F500001305051FF3
:10012000EF305004732920B0F32900B097F5000098
:10013000938585291306010013050400EF20400A6A
:10014000F32420B0B3842441F32200B017F500005B
:100150001305C51C33893241EF30D0001307090065
:1001600093860400130609009385040017F5000028
:100170001305C51BEF30406D3716000013060680CF
:1001800097050100938545A413050100EF30101574
:1001900093090500631E050217F50000130585206D
:1001A000EF30407C13050400EF2090281301010379
:1001B0008320C17E138509000324817E8324417E30
:1001C0000329017E8329C17D1301017F678000001F
:1001D00017F5000013058518EF30C078B717000039
:1001E00013830780130401003309230097F40000F0
:1001F0009384C41A03162400831504001385040095
:1002000013040402EF304064031664FE831544FEB9
:1002100013850400EF3040630316A4FE831584FEAB
:1002200013850400EF3040620316E4FE8315C4FE1C
:1002300013850400EF304061031624FF831504FF8B
:1002400013850400EF304060031664FF831544FFFC
:1002500013850400EF30405F0316A4FF831584FF6D
:1002600013850400EF30405E0316E4FF8315C4FFDE
:1002700013850400EF30405DE31E24F7930910005E
:100280006FF0DFF217F5000013050507EF30806D02
:10029000930910006FF09FF10000000000000000C3
:1002A0001305000067800000130000001300000029
:1002B0001305000067800000130000001300000019
:1002C0001305000067800000130000001300000009
:1002D00013050000678000001300000013000000F9
:1002E00013050000678000001300000013000000E9
:1002F00013050000678000001300000013000000D9
:1003000013050000678000001300000013000000C8
:1003100013050000678000001300000013000000B8
:1003200013050000678000001300000013000000A8
:100330001305000067800000130000001300000098
:100340001305000067800000130000001300000088
:100350001305000067800000130000001300000078
:100360001305000067800000130000001300000068
:100370001305000067800000130000001300000058
:100380001305000067800000130000001300000048
:100390001305000067800000130000001300000038
:1003A0001305000067800000130000001300000028
:1003B0001305000067800000130000001300000018
:1003C0001305000067800000130000001300000008
:1003D00013050000678000001300000013000000F8
:1003E00013050000678000001300000013000000E8
:1003F00013050000678000001300000013000000D8
:1004000013050000678000001300000013000000C7
:1004100013050000678000001300000013000000B7
:1004200013050000678000001300000013000000A7
:100430001305000067800000130000001300000097
:100440001305000067800000130000001300000087
:100450001305000067800000130000001300000077
:100460001305000067800000130000001300000067
:100470001305000067800000130000001300000057
:100480001305000067800000130000001300000047
:10049000130500006780000017F500001305D5C89C
:1004A000EF30404C6FF05FFF130101FC232011007F
:1004B0002322A1002324B1002326C1002328D10038
:1004C000232AE100232CF100232E01012320110314
:1004D0002322510223246102232671022328C1030F
:1004E000232AD103232CE103232EF103F32220340A
:1004F00013032000638862021303B0006388620064
:1005000013033000638862006F00C002EF00403EBA
:100510006F00400317F500001305C5BCEF308044A1
:100520006F00400217F500001305C5B6EF30804399
:100530006F00400117F500001305E5BCEF30804265
:100540006F004002F32210340383020013053000D1
:100550003373A3006314A3009382220093822200CA
:10056000739012348320010003254100832581000C
:100570000326C1008326010103274101832781014E
:100580000328C1018328010283224102032381023F
:100590008323C102032E0103832E4103032F810312
:1005A000832FC10313010104730020307300203036
:1005B0003305A04023AAA1F41305F0FF67800000D3
:1005C00097F70000938787B8130850053707001086
:1005D0002320070183C61700638006062320D70067
:1005E00083C22700638A02042320570003C3370015
:1005F000630403042320670083C34700638E030260
:100600002320770003C55700630805022320A700B5
:1006100083C56700638205022320B70003C6770005
:1006200093878700630A06002320C70003C80700DA
:10063000E31008FA678000006780000013000000E4
:100640009307800523AAF1F41305F0FF67800000EB
:100650009307800523AAF1F41305F0FF67800000DB
:100660009307800523AAF1F41305F0FF67800000CB
:100670009307800523AAF1F41305F0FF67800000BB
:100680009307800523AAF1F41305F0FF67800000AB
:100690001305F0FF67800000130000001300000046
:1006A0009307C00023AAF1F41305F0FF6780000050
:1006B000B707048023A0A700730050106F0000004C
:1006C0009307800523AAF1F41305F0FF678000006B
:1006D0009307B00023AAF1F41305F0FF6780000030
:1006E000B727000023A2F500130500006780000073
:1006F0009307800523AAF1F41305F0FF678000003B
:100700009307800523AAF1F41305F0FF678000002A
:10071000930780FA23AAF1F4130500006780000014
:100720001305100067800000130000001300000094
:10073000930780FA23AAF1F41305F0FF6780000005
:100740001305F5FF13351500678000001300000046
:100750009307600123AAF1F41305F0FF67800000FE
:100760009307F00123AAF1F41305F0FF678000005E
:100770001305000067800000130000001300000054
:100780009307800523AAF1F41305F0FF67800000AA
:100790001305F0FF67800000130000001300000045
:1007A0009307800523AAF1F41305F0FF678000008A
:1007B0001305000067800000130000001300000014
:1007C000B727000023A2F500130500006780000092
:1007D0001305F0FF67800000130000001300000005
:1007E0001305F0FF678000001300000013000000F5
:1007F0009307200023AAF1F41305F0FF678000009F
:100800009307800523AAF1F41305F0FF6780000029
:100810009307A00023AAF1F41305F0FF67800000FE
:10082000130101FF23202101138901F4832709000B
:1008300023248100232291002326110093840500A4
:1008400013040600638A070213060400938504005C
:1008500017150100130585B7EF0080598320C100EB
:1008600013050400032481008324410003290100AF
:100870001301010167800000B7C5010013063000B5
:100880009385052017150100130545B4EF00404975
:1008900093021000232059006FF01FFB130000008B
:1008A00023A8A1F2130500006780000013000000D8
:1008B000138701F3032307003305A3002320A700B8
:1008C000637C250097F202009382C2736376550021
:1008D00013050300678000009307C0001303F0FFB7
:1008E00023AAF1F413050300678000001300000041
:1008F000130101FF23229100232611009307100802
:100900009384050063CC170D9307F00263D6170399
:10091000938008FD9302100563E4120217F30000B0
:10092000130303859398200033876800832307000F
:10093000B385630067800500930E1001638AD80FAA
:100940009304500517F7000013074780B70F0010F6
:1009500023A09F0083471700638E070423A0FF0096
:10096000834027006388000423A01F0083423700D0
:100970006382020423A05F0003434700630C030269
:1009800023A06F00834857006386080223A01F013D
:10099000834367006380030223A07F0083457700C1
:1009A000638A05001307870023A0BF008344070064
:1009B000E39004FA8320C100832441001301010164
:1009C000678000008320C100130E800523AAC1F5B3
:1009D0008324410013010101678000009300F0406F
:1009E000E3C010F79302F03F63D61203938808C068
:1009F0001303F000E36613F517F700001307C78B26
:100A0000939328003385E300832505003386E500B2
:100A100067000600130EC00AE38EC8F963461E0382
:100A2000130F9009E388E8F9930F900AE39AF8F11D
:100A3000130F80FA23AAE1F56FF0DFF737250000E6
:100A400023A2A4006FF01FF7930E600DE39AD8EF76
:100A500023A8A1F26FF01FF61308F00123AA01F5F5
:100A60006FF05FF59306200023AAD1F46FF09FF496
:100A7000370404802320A400730050106F0000008E
:100A80009304600123AA91F46FF0DFF22320210187
:100A9000138901F4232481001304060003260900AE
:100AA00063060602130604000324810003290100E3
:100AB0008320C100938504008324410017150100A1
:100AC0001305C590130101016F008032B7C6010004
:100AD0001306300093850620171501001305058FB6
:100AE000EF00002413081000232009016FF09FFB82
:100AF0008327C500638807208328050163840820B5
:100B00000328050003469500032745018346480155
:100B1000B3E2C600A304550013F306026302031EEA
:100B2000B383E84093050001138F030063F475005D
:100B3000130F0001638AE81C338EE700834E0E001A
:100B4000930F1700130610002300D801232AF50184
:100B50006370761AB386F70183C206001303270079
:100B60009305200023005800232A650063F27518BE
:100B7000338E6700834E0E00130637009306300055
:100B80002300D801232AC50063F47616B382C70078
:100B900003C3020093054700130E400023006800C2
:100BA000232AB50063767E14B38EB70083C60E0089
:100BB00013065700930250002300D800232AC500D3
:100BC00063F872123383C70083450300930E6700F6
:100BD000130E60002300B800232AD501637A7E102B
:100BE000B386D70183C20600130677001303700093
:100BF00023005800232AC500637C730EB385C70009
:100C000083CE050093068700130E80002300D801D1
:100C1000232AD500637E7E0CB382D70003C3020073
:100C2000130697009305900023006800232AC5004F
:100C300063F0750CB38EC70083C60E009302A70045
:100C4000130EA0002300D800232A550063727E0AE9
:100C500033835700834503001306B700930EB0009B
:100C60002300B800232AC50063F47E08B386C700BA
:100C700083C206001303C700130EC00023005800F0
:100C8000232A650063767E06B385670083CE050060
:100C90001306D7009306D0002300D801232AC500ED
:100CA00063F87604B382C70003C302009305E7002C
:100CB000130EE00023006800232AB500637A7E0249
:100CC000B38EB70083C60E001306F7009302F00040
:100CD0002300D800232AC50063FC7200B387C70035
:100CE00003C307001307070123006800232AE50058
:100CF00093050000638403009305FFFF3387F5012C
:100D00006384E800678000008348480023280500CA
:100D100013F5D80F2302A80067800000130000001D
:100D2000130101FE232A910083240500232C810056
:100D30002328210123263101232E110023820400C0
:100D400023840400930770FC2384F40023880400A8
:100D50002322B5001304050013890500930906003A
:100D6000930600001386050037D512139305000083
:100D7000EF10501EB7028000637455029350F500C7
:100D8000130700F82386E40013F3F00F13557500E2
:100D9000238264009373F50F23807400238604007C
:100DA0002386340123043401A304040097050000C2
:100DB000938545D4232224018320C10123280400E4
:100DC00023260400232A0400232E0400232C0400DD
:100DD000232204022320B40203248101832441013D
:100DE000032901018329C10013010102678000006A
:100DF000130101FF23260100638C0522630A0622EA
:100E0000032505003386C5009307100303474501FA
:100E1000232601008326C1009372F70F63E2D70AED
:100E20000323C10093031300232671000328C1008C
:100E300063E807098328C100138E18002326C10127
:100E4000832EC10063EED707032FC100930F1F004D
:100E50002326F1010327C10063E4E7068326C100CE
:100E600013831600232661008323C10063EA7704FD
:100E70000328C1009308180023261101032EC10086
:100E800063E0C705832EC100138F1E002326E101F6
:100E9000832FC10063E6F7030327C1009306170001
:100EA0002326D1000323C10063EC67008323C10024
:100EB00013881300232601018328C100E3F217F7EA
:100EC00093F20202E38402F423260100032EC10000
:100ED00063E2C70B832EC100138F1E002326E1019E
:100EE000832FC10063E8F7090327C10093061700A9
:100EF0002326D1000323C10063EE67068323C100CC
:100F000013881300232601018328C10063E4170717
:100F10008322C100138E12002326C101832EC1003B
:100F200063EAD705032FC100930F1F002326F101A9
:100F30000327C10063E0E7048326C1001383160082
:100F4000232661008323C10063E677020328C100E2
:100F500093081800232611018322C10063EC570077
:100F6000032EC100930E1E002326D101032FC100C2
:100F7000E3F2E7F783CF05002300F5012326010004
:100F80000327C10063E2E70A8326C100138316002A
:100F9000232661008323C10063E877080328C1008A
:100FA00093081800232611018322C10063EE57061F
:100FB000032EC100930E1E002326D101032FC10072
:100FC00063E4E707832FC10013871F002326E10096
:100FD0008326C10063EAD7040323C10093031300EF
:100FE000232671000328C10063E007058328C100A0
:100FF0009382180023265100032EC10063E6C70325
:10100000832EC100138F1E002326E101832FC10010
:1010100063ECF7010327C100930617002326D100D4
:101020000323C100E3F267F693851500E390C5DE64
:10103000130101016780000013000000130000008D
:101040006388050E03C605006304060E83270500AA
:10105000130101FF9386150003C747019372F70F31
:10106000A30751000343F100937303026396030A3D
:1010700003C547019375F50FA307B1000348F100BD
:1010800093780802639A080803CE4701937EFE0F07
:10109000A307D101034FF100937F0F02639E0F0658
:1010A00003C747019372F70FA30751000343F100F1
:1010B000937303026392030603C547019375F50F0B
:1010C000A307B1000348F10093780802639608046F
:1010D00003CE4701937EFE0FA307D101034FF1001A
:1010E000937F0F02639A0F0203C747019372F70FB2
:1010F000A30751000343F10093730302639E0300AF
:1011000003C547019375F50FA307B1000348F1002C
:1011100093780802E38208F4938616002380C700C0
:1011200003C6F6FFE31A06F213010101678000000F
:10113000678000001300000013000000130000008F
:10114000630C0602638A0502032705009706000068
:101150009386469A2326B500834747002328C50077
:10116000232A05002320D50293E2270023025700FB
:10117000732340F16304030067800000B723000C71
:10118000170601001306862483A503003305C54016
:101190001338150093081000339E0801B36EBE008B
:1011A00023A0D3016780000013000000130000009B
:1011B00083270500034795008326050183C2470165
:1011C00033E3E200A304650093F3F20F6398060093
:1011D00013D5630013751500678000001305000028
:1011E00067800000130000001300000013000000DF
:1011F0009307050063800518630E06160327050094
:101200000345950083464701B3E2A600A384570037
:1012100013F31600630003169373360013050000E2
:10122000638C0308130810006380030793082000F1
:101230006386130303470700130510002380E500AE
:1012400003A7070003CE9700834E470133EFCE017B
:10125000A384E70193FF1E0063820F1283460700F9
:10126000B382A500130515002380D20003A7070051
:1012700003C397008343470133E86300A384070156
:1012800093F81300638C080E034E07003387A50004
:10129000130515002300C70103A7070083CE97009D
:1012A000034F4701B36FDF01A384F70193761F005B
:1012B0006386060C6306A60C83420700B383A50071
:1012C000130515002380530003A8070003CE9700E1
:1012D0003383A5000347480193080500B36EC70197
:1012E000A384D701137F1700630A0F08834F0800F8
:1012F00013051500B382A5002300F30183A30700A3
:1013000083C6970003C343013368D300A384070156
:10131000137E130063040E0603C703001385280021
:10132000B38EA5002380E20003AF070083CF9700B0
:1013300083424F01B3E3F201A384770093F61200D6
:10134000638E060203430F001385380023806E006E
:1013500003A7070083C89700034E470133681E01A7
:10136000A3840701937E1E00638A0E00E316A6F491
:1013700067800000130500006780000067800000A0
:10138000678000001300000013000000130000003D
:10139000F32740F163960702B726000C17070100F8
:1013A0001307C70203A60600B302E54013B31200F9
:1013B0009303100033986300B368C80023A016019C
:1013C000370E0100930EFEFF638CD5010325050047
:1013D00093F5F500034F4500B36FBF002302F501FD
:1013E00067800000130000001300000013000000DD
:1013F000638E05029307000C63EAC702032705000A
:10140000232EB5008342870013F3F203B363C300B6
:1014100093F5F30F2304B7000346470093661600C5
:101420002302D700732840F163040800678000009E
:10143000B728000C970E0100938E4EF903AE0800FA
:101440003305D541133F1500930F1000B397EF01FB
:1014500033E7C70123A0E800678000001300000005
:1014600063840502032705002320B5022326050017
:10147000834747002328050093E2270023025700F3
:10148000732340F16304030067800000B723000C5E
:1014900097050100938585F383A603003305B540C6
:1014A0001336150013081000B318C80033EED80027
:1014B00023A0C30167800000130000001300000098
:1014C00063800502032705002322B50283474700F6
:1014D00093E2870023025700732340F16304030063
:1014E00067800000B723000C97050100938505EE87
:1014F00083A603003305B54013361500130810000A
:10150000B318C80033EED80023A0C30167800000E1
:10151000638805126306061283270500834695003B
:1015200003C74701B362D700A30455001373070232
:1015300063080310930300011305060063F4C3005E
:101540001305000103C8050093081000238007015C
:1015500063FAC80E03CE1500930E20002380C70146
:1015600063F2CE0E03CF2500930F30002380E701F6
:1015700063FACF0C83C63500130740002380D700E1
:101580006372C70C83C245001303500023805700C9
:10159000637AC30A83C35500130860002380770071
:1015A0006372C80A83C86500130E70002380170198
:1015B000637ACE0883CE7500130F80002380D70195
:1015C0006372CF0883CF8500930690002380F701D4
:1015D00063FAC60683C295001307A0002380570054
:1015E0006372C70603C3A5009303B000238067009E
:1015F00063FAC30403C8B5009308C0002380070141
:1016000063F2C80403CEC500930ED0002380C70147
:1016100063FACE0203CFD500930FE0002380E701E9
:1016200063F2CF0283C6E5009302F0002380D70067
:1016300063FAC20083C5F5002380B700678000000D
:101640001305000067800000130000001300000075
:10165000832705000347950083C24701A3040500C3
:1016600033E5E2001375E509678000001300000010
:101670008327050003C58701678000001300000071
:1016800003270500834795008342470133E3F200B7
:10169000A304650013F50206678000001300000034
:1016A000032705008347C70093E20704230657007A
:1016B000678000001300000013000000130000000A
:1016C000032705008347C70093F2F70B2306570053
:1016D0006780000000000000000000000000000023
:1016E000130101F92322A105032D0600635EA05713
:1016F000832E86002320B10593080500930D060074
:1017000013030000130E8600E3820E1213060E0070
:101710009307030013880E00130F10001307000037
:101720008322460033080F0383268600B3CF570277
:10173000338FEF03B3E757023307E7016384060EE5
:101740008323C60083220601B3CF7702B306D802F3
:1017500033880F03B3E77702330707016384020C72
:10176000032F460183238601B3CFE7033388DF02CB
:10177000B3E7E70333070701B38656026384030A1E
:10178000032FC60183220602B3CFE7033388DF02AB
:10179000B3E7E70333070701B383760263840208E4
:1017A00083264602832F860233CFD70233087F0277
:1017B000B3E7D70233070701B383530263840F06ED
:1017C0008326C6028322060333CFD70233087F0263
:1017D000B3E7D70233070701B383F303638402043B
:1017E000832F4603032F860313060604B3C6F703AD
:1017F00033887602B3E7F70333070701B383530255
:1018000063020F028322C6FF03280600B3CF5702EC
:10181000B3867F02B3E757023307D700338FE30362
:10182000E31008F0131627003387C5008353070021
:101830001303130093884800239E78FE83522700E9
:10184000239F58FEE3126DEC93858D0293031000E5
:1018500063E2C57F232491062326810623222107E4
:1018600023203107232E4105232C5105232A61050E
:10187000232871052326810523249105B742000002
:1018800013030D00938705009308050093840D0052
:1018900003A9070013942300338C8800B389230322
:1018A000330D8C00B30D8D0013860300938C08005C
:1018B000930B000093060300138F0700334A330392
:1018C000139429001387090013151A00B30A450160
:1018D000131B2A00931E3A00139E2A002320610145
:1018E0002322D1012324C1016F004002930F200065
:1018F0006302F939B38BEB00B38C8C00330C8C0092
:10190000330D8D00B38D8D0063D2DB3213084000A0
:10191000E31E09FD83A5440093870C00938F840880
:1019200093830D0063960544232AB103832D810020
:10193000130E0D0013030C00130B0600938A0F0007
:10194000138A0F002326E1002328D100232A210136
:10195000232CE101232E71012320910323228102F4
:10196000232481032326C1022328A103232C11034E
:10197000232E9102839E070083992700130E4E00A9
:101980001395DE001399D900B305D541330D3941C4
:101990003384550033065D009358F440135FF640DE
:1019A000239017012391E701831B0300831C23006D
:1019B000130343001397DB001398DC00330C7741CB
:1019C000B3049841B3065C00B38E540093D9F6403B
:1019D00013D5FE40231E33FF231FA3FE0319CEFFA2
:1019E000031DEEFF938747001314D9009315DD0004
:1019F00033062441B388A541330F5600B38B5800FA
:101A0000935CFF4013D7FB40231E9EFF231FEEFE77
:101A100003980300039C2300032D01009314D800B6
:101A20009316DC00B38E0441B389864133855E0092
:101A3000338959001358F540135FF940239003018F
:101A40002391E30183150A0003192A00031CCEFF2A
:101A5000831CEEFF83284100839B0F0083942F009B
:101A6000330A1A01B38FAF01B38885038319C3FF0B
:101A70000317E3FF83DEC7FF03D5E7FF03940A00E4
:101A800003962A0093834300130BFBFFB38ABA012A
:101A9000330D9903B385BC02B38CA841B3885C00B5
:101AA00013DDF840931C0D0193D80C01338D1E01FA
:101AB000931C0D01B38E1E4113DD0C013309890304
:101AC00093980E0193DE0801239EA7FF338CE40256
:101AD000B3852501B38C550093D8FC4013990801B8
:101AE00093550901B30CB5003305B5401319050131
:101AF00093980C01B3863B03935C090193D80801CA
:101B0000239F17FFB3868641338C56001355FC4044
:101B10001319050193560901B30504033385DC004D
:101B20003389DC40B30CCF02B30B77033387954185
:101B3000B305570013DCF540931C0C0113D70C01BF
:101B4000B386E6009395060113DC0501330D8D4144
:101B5000B3843403B309E540231EAEFF33092701E4
:101B60003308C80233869B0033055600935BF5406B
:101B7000939C0B0113D70C01B386EE00B38EEE409D
:101B8000330FE4033304E801B305540013DDF540DB
:101B900093140D0113D604013308C700131508016F
:101BA000935B0501B3887841231F1EFF83DCC7FFC9
:101BB00003D7E7FF338FC640330C9C01B386EB009D
:101BC000239E87FF239FD7FE231F23FF231EE3FFB0
:101BD0003309D601239E23FF239F33FFE31C0BD839
:101BE0000327C100832BC10103244102832C01027E
:101BF000032C8102032D0103832D41038326010160
:101C0000B38BEB0003294101032F81010326C1029D
:101C1000832881038324C103B38C8C00330C8C0094
:101C2000330D8D00B38D8D00E3C2DBCE93078FFFA4
:101C30009303070013830600E39CF4C40324C10646
:101C4000832481060329410683290106032AC1054D
:101C5000832A8105032B4105832B0105032CC10435
:101C6000832C8104832D0104032D410413010107FA
:101C7000678000008325010013850C00938E840883
:101C8000130E0C00130B060083130500031325002D
:101C9000130545009399E3009317E300338A7940D5
:101CA000B38A674033085A00B38F5A009353F84001
:101CB00013D3FF40231E75FE231F65FE83190E00FC
:101CC000031A2E00130E4E009397E900931AEA00B0
:101CD00033883741B38F4A41B303580033835F00E1
:101CE00093D7F340935FF340231EFEFE231FFEFFB6
:101CF00083990E00039A2E008353C5FF3388370360
:101D0000130BFBFFB38EBE00B38A4F03B3874703A9
:101D100033035841330A53001358FA40931A080109
:101D200013DA0A01B3834341231E7EFE0358E5FF05
:101D3000B38F3F03B389F701B387590013D3F7403B
:101D4000931A030193DF0A01B303F841231F7EFEB8
:101D50000358C5FF8359E5FF330A0A01B3873F01E2
:101D6000231E45FF231FF5FEE3100BF26FF09FB813
:101D7000232AB103832D8100930E0D00130E0C0056
:101D8000930A0600138A0F0093890F002326E100AF
:101D90002328D100232A2101232CE101232E7101C4
:101DA0002320910323228102232481032326C102BD
:101DB0002328A103232C1103232E910283940700CF
:101DC00003992700938E4E00939BD400131CD900D7
:101DD000B38C9B40330D2C41338F5C0033075D0087
:101DE0001356FF409358F7402390C70023911701E3
:101DF00003140E00031B2E00130E4E009316D40086
:101E00001315DB003383864033086541B305530067
:101E1000B304580013D9F54093DBF440231E2EFF82
:101E2000231F7EFF039CCEFF839CEEFF938747001A
:101E3000131DDC00139FDC0033068D4133079F41E7
:101E4000B30856003304570013DBF8409356F440B0
:101E5000239FDEFE239E6EFF039503000393230062
:101E6000032D01009315D5001318D300B384A540AA
:101E700033096840B38B5400330C590093D8FB40AE
:101E80001358FC402390130123910301839409000C
:101E900083952900839CCEFF039CEEFF0323410022
:101EA00003940F00839B2F00B3896900B38FAF01A8
:101EB00033839C020317CEFF031BEEFF03D5C7FF3E
:101EC00003DFE7FF03190A0003162A009383430088
:101ED000938AFAFF330ABA01330DBC02B384840338
:101EE000B385BC02B30CA34133835C00135DF340A4
:101EF000931C0D0113D30C01330D6500931C0D01D0
:101F00003305654013DD0C01330C7B03B38595006D
:101F1000B38C5500131305011355030113D3FC4073
:101F20009314030193D50401B30CBF00330FBF40DA
:101F3000B306870293140F0113930C0193DC040181
:101F400013530301239EA7FF239F67FEB386864199
:101F5000338C5600135FFC4093140F0193D6040199
:101F6000B3852803338FDC40B384DC00B30CC80294
:101F7000B30B770333879541B305570013DCF54066
:101F8000931C0C0113D70C01B386E6009395060150
:101F900013DC0501330D8D4133046403330BE7017A
:101FA000239EAEFFB384E4403386C802B3888B001F
:101FB000338F5800935BFF40939C0B0113D70C01A8
:101FC000B306E5403305E50033082803330906016D
:101FD000B305590013DDF54013140D011356040128
:101FE000B308C700139F0801935B0F0133037341CC
:101FF000239F6EFE83DCC7FF03D7E7FF3308D600BD
:10200000330C9C01B386EB00239E87FF239FD7FEF2
:10201000231F9EFE231E0EFFB304C540239E93FE86
:10202000239F63FFE39C0AD86FF09FBB13870500D3
:102030006FF0CFFF832D0104032D4104130101072D
:102040006780000013000000130000001300000070
:10205000130101FF232291002320210123261100D7
:10206000232481009304050013890500638C060076
:102070006302060C03A70600B71700009380778859
:1020800063F0E00C3715000013058588EF009039E8
:10209000130405006306050A232095002322250169
:1020A0009302002063DC92069703010083A3C39F81
:1020B00003AE030003A3430083A8830003A8C30067
:1020C00083AE030183A5430103A6830183A6C30155
:1020D00003AF030283AF43022324C4012326640019
:1020E00023281401232A0401232CD401232EB40015
:1020F0002320C4022322D4022324E4032326F4034E
:102100008320C100130504000324810083244100BF
:1021100003290100130101016780000013962400C8
:102120009705010083A5059813058508EF10506BEE
:102130006FF09FF7B71400001389848823A026014D
:10214000130400008320C100130504000324810050
:10215000832441000329010013010101678000006D
:1021600093070600130605006386F5001385070034
:102170006FF00FD7130101FE232821010329050069
:102180002326A100232E110013192900130509008D
:10219000232C8100232A910013840500EF0090284E
:1021A0000326C1009305040093040500EFF04FD30C
:1021B000130609009385040013050400EF10506214
:1021C000032481018320C101032901011385040037
:1021D00083244101130101026F00902513000000C8
:1021E00093070600130605006386F50013850700B4
:1021F0006FF00FCF130101FE2328210103290500F1
:102200002326A100232E110013192900130509000C
:10221000232C8100232A910013840500EF009020D5
:102220000326C1009305040093040500EFF04FCB93
:10223000130609009385040013050400EF10505A9B
:10224000032481018320C1010329010113850400B6
:1022500083244101130101026F00901D130000004F
:10226000678000001300000013000000130000004E
:1022700067800000000000001308000063C605121C
:1022800063DC0600B337C000B306D0401348F8FF44
:10229000B386F6403306C0409308060013070500D6
:1022A00013830500639A060E63F4C516B707010091
:1022B0006364F622B7070001930680016374F60099
:1022C00093060001B7170180335ED6009387C7BE1F
:1022D000B387C70183C70700130E0002B387D70077
:1022E000B306FE40630CFE003393D500B357F500F0
:1022F000B318D60033E367003317D50013D60801AF
:102300003355C3029396080193D6060193570701EC
:102310003373C302B385A60213130301B3E7670047
:1023200063FCB700B387F8001303F5FF63E41701FC
:1023300063E6B74013050300B387B740B3D5C702C0
:102340001317070113570701B3F7C702B386B60285
:10235000939707013367F700637ED7003387E80060
:102360009387F5FF636617019385E5FF6364D700E4
:1023700093850700131505013365B500930500002B
:10238000630A0800B337A000B305B040B385F54039
:102390003305A0406780000063F4D5029305000078
:1023A000130500006FF0DFFDB337A000B305B040A8
:1023B000B385F5403305A0401308F0FF6FF05FECE4
:1023C000B707010063E8F61EB70700019308800114
:1023D00063F4F60093080001B717018033D71601A4
:1023E0009387C7BEB387E70003C7070093070002C0
:1023F00033071701B388E7406396E71C63E4B63000
:102400003335C50013351500930500006FF05FF7F5
:10241000630C060CB7070100637CF62C133306101F
:102420001333130013133300B3566600B71701803C
:102430009387C7BEB387D70083C607009307000200
:10244000B3866600B38ED7406394D70CB386C5407D
:1024500013530601131606011356060193051000C7
:1024600033D5660293570701B3F66602330EC502F1
:1024700093960601B3E7D70063FCC701B387F80062
:102480009306F5FF63E4170163E4C72B1385060089
:10249000B387C741B3D66702131707011357070164
:1024A000B3F767023386C602939707013367F700D5
:1024B000637EC7003387E8009387F6FF63661701E2
:1024C0009386E6FF6364C700938607001315050132
:1024D0003365D5006FF0DFEA9336061093B6160029
:1024E000939636006FF01FDEB71701809306000049
:1024F0009387C7BEB387D70083C6070013030000C6
:1025000093070002B3866600B38ED740E380D7F40A
:10251000B318D60133DED50013D30801B3576E02CA
:102520001396080113560601B356D5003317D5018B
:10253000B395D501B3E6B60093D50601337E6E029E
:102540003305F602131E0E01B3E5C50163FEA500B7
:10255000B385B800138EF7FF63E4151D63F2A51C65
:102560009387E7FFB3851501B385A54033D5650291
:102570009396060193D60601B3F56502330EA602C3
:1025800093950501B3E6B60063FEC601B386D80095
:102590009305F5FF63EE161763FCC6171305E5FFF9
:1025A000B386160193950701B386C641B3E5A5002E
:1025B0006FF01FEB93B8061093B81800939838008B
:1025C0006FF09FE1B35EE600B3961601B3EEDE0056
:1025D00033D3E50013DF0E01B357E303139E0E015F
:1025E000B3951501135E0E013357E5003367B7004D
:1025F00093560701331616013373E303B305FE0246
:1026000013130301B3E6660063FEB600B386DE0073
:102610001383F7FF63EAD61163F8B6109387E7FFD9
:10262000B386D601B386B640B3D5E60313170701C8
:1026300013570701B3F6E6033303BE029396060170
:102640003367D700637E67003387EE009386F5FF1C
:102650006364D70D6372670C9385E5FF3307D70179
:1026600093970701370F0100B3E7B7009306FFFF09
:10267000B3F5D70013DE0701B376D6001356060173
:10268000B38ED50233076740B306DE0213D30E01C3
:10269000B385C502B385D500B305B300330ECE02B2
:1026A00063F4D500330EEE0193D60501B386C6015F
:1026B000636AD7026308D7001385070093050000FB
:1026C0006FF01FCCB70601009386F6FF33F7D500F5
:1026D00013170701B3FEDE00331515013307D701C9
:1026E000E37CE5FC1385F7FF930500006FF05FC9FD
:1026F000B7070001637AF60493560601130300013D
:102700006FF0DFD293050000130510006FF05FC774
:10271000138505006FF01FE9938506006FF05FF4E5
:1027200093070E006FF05FE4930703006FF09FEFD5
:102730001305E5FFB38717016FF09FD51305E5FF7C
:10274000B38717016FF05FBF9356860113038001B3
:102750006FF0DFCD1308060093080500138705000E
:102760006390060E63FEC512B7070100636EF61E86
:10277000B7070001930680016374F6009306000119
:10278000B71701803353D6009387C7BEB38767005E
:1027900083C7070013030002B387D700B306F340D3
:1027A000630CF3003397D500B357F5003318D60008
:1027B00033E7E700B318D500135608013355C702B5
:1027C0009316080193D6060193D708013377C70201
:1027D000B385A60213170701B3E7E70063FCB70050
:1027E000B307F8001307F5FF63E4070163E0B73EA2
:1027F00013050700B387B74033D7C7029398080182
:1028000093D80801B3F7C702B386E602939707018E
:10281000B3E8F80063FED800B30818019307F7FF88
:1028200063E608011307E7FF63E4D8001387070096
:10283000131505013365E50093050000678000006E
:1028400063F8D500930500001305000067800000C1
:10285000B707010063E8F61EB707000113088001FF
:1028600063F4F60013080001B717018033D706019F
:102870009387C7BEB387E70003C70700930700022B
:10288000330707013388E7406396E71C63E4B630FB
:102890003335C5001335150093050000678000002F
:1028A000630C060CB7070100637CF62C1337061087
:1028B0001337170013173700B356E600B717018018
:1028C0009387C7BEB387D70083C70700930600026C
:1028D000B387E700B38EF6406394F60CB387C54028
:1028E00093560601131606011356060193051000B0
:1028F00033D5D70213D70801B3F7D7023303C50284
:1029000093970701B367F70063FC6700B307F8000C
:102910001307F5FF63E4070163E4672A1305070063
:10292000B387674033D7D7029398080193D808013B
:10293000B3F7D7023306C70293970701B3E8F8004D
:1029400063FEC800B30818019307F7FF63E60801A8
:102950001307E7FF63E4C800138707001315050199
:102960003365E500678000009336061093B61600C5
:10297000939636006FF0DFE0B717018093060000F2
:102980009387C7BEB387D70083C70700130700002C
:1029900093060002B387E700B38EF640E380F6F4B7
:1029A0003318D60133D3F50093560801335ED302B2
:1029B00013160801B395D50113560601B357F50058
:1029C000B3E7B70013D70701B318D5013373D302A8
:1029D000B305C6031313030133676700637EB700B3
:1029E0003307E8001305FEFF6364071D6372B71C1D
:1029F000130EEEFF330707013307B7403355D702F5
:102A00009397070193D707013377D7023303A602C1
:102A100013170701B3E7E70063FE6700B307F80089
:102A20001307F5FF63EE071763FC67161305E5FF51
:102A3000B387070193150E01B3876740B3E5A5007F
:102A40006FF01FEB13B80610133818001318380076
:102A50006FF09FE1335EE600B3960601336EDE0051
:102A6000B3D8E500935E0E01B3D7D80313130E015C
:102A7000B3950501135303013357E5003367B700DE
:102A80009356070133160601B3F8D803B305F302D2
:102A900093980801B3E6160163FEB600B306DE00A4
:102AA0009388F7FF63EAC61163F8B6109387E7FFD0
:102AB000B386C601B386B640B3D5D6031317070154
:102AC00013570701B3F6D603B308B3029396060172
:102AD0003367D700637E17013307EE009386F5FF57
:102AE0006364C70D6372170D9385E5FF3307C70154
:102AF00093970701B70E0100B3E7B7009386FEFF77
:102B0000B3F5D70013D30701B376D60013560601E9
:102B1000338ED50233071741B306D30293580E0103
:102B2000B385C502B385D500B385B8003303C302AE
:102B300063F4D5003303D30193D60501B386660051
:102B4000636AD7026308D700138507009305000066
:102B500067800000B70601009386F6FF33F7D500C3
:102B600013170701337EDE00331505013307C70154
:102B7000E37CE5FC1385F7FF930500006780000008
:102B8000B7070001637AF6049356060113070001A4
:102B90006FF0DFD29305000013051000678000007E
:102BA000130507006FF01FE9938506006FF05FF4CF
:102BB000130E05006FF05FE4938708006FF09FEF3E
:102BC0001305E5FFB38707016FF09FD51305E5FFF8
:102BD000B38707016FF01FC2935686011307800168
:102BE0006FF0DFCD9305050093060000130600008B
:102BF000130500006F10C061130101FF9305000071
:102C0000232481002326110013040500EF10C0695E
:102C100083A701F563840700E7800700130504001C
:102C2000EFD01FA99305050003A5C1F36F000001B4
:102C30009305050003A5C1F36F10D00D130101FD2D
:102C4000232E310123261102232481022322910203
:102C5000232021039387B500130760019309050022
:102C60006360F7089307000163E0B720EF00007886
:102C7000930780019305200093040001138981824A
:102C8000B307F90003A44700138787FF6300E43408
:102C9000832744008326C4000326840093F7C7FFDC
:102CA000B307F40003A747002326D60023A4C600D9
:102CB000136717001385090023A2E700EF00407394
:102CC000130584008320C10203248102832441026E
:102CD000032901028329C101130101036780000058
:102CE00093F487FF63C2071863E0B418EF00007025
:102CF0009307701F63F6973E93D79400638E071671
:102D000013074000636CF73293D7640093859703F1
:102D10001388870313963500138981823306C9000F
:102D200003244600130686FF630886021305F0009D
:102D30006F0040018326C40063560728630ED60047
:102D4000138406008327440093F7C7FF3387974017
:102D5000E352E5FE93050800032409019308890066
:102D6000630E1425832744009306F00093F7C7FFF2
:102D70003387974063CCE636232A190123281901AB
:102D8000635007341307F01F032549006368F724D5
:102D900013F787FF130787003307E900832607002F
:102DA00013D6570093071000B397C7003365F5009B
:102DB000930787FF2326F4002324D4002322A900AD
:102DC0002320870023A6860093D7254013061000F2
:102DD0003316F600636AC50AB377A6006394070248
:102DE0001316160093F5C5FFB377A600938545002B
:102DF000639A070013161600B377A6009385450063
:102E0000E38A07FE1308F0001393350033036900CB
:102E1000130503008327C500138E05006302F52404
:102E200003A747001384070083A7C7001377C7FFD2
:102E3000B30697406342D824E3C206FE3307E4009A
:102E400083264700032684001385090093E61600B5
:102E50002322D7002326F60023A4C700EF00405901
:102E6000130584006FF01FE69307C00023A0F9004C
:102E7000130500006FF01FE5130600209305000402
:102E80001308F0036FF05FE9032489002328610130
:102E90008327440013FBC7FF63689B0033079B40F5
:102EA0009307F00063CAE70C23229101232A510102
:102EB00003A741F383AAC1F4232C41012326710106
:102EC0009307F0FF330A6401B38A54016306F73CA9
:102ED000B71700009387F700B38AFA00B7F7FFFF30
:102EE000B3FAFA0093850A0013850900EF00D06554
:102EF0009307F0FF930B0500630AF5442324810137
:102F0000636E4523138C01F683250C00B385BA004C
:102F10002320BC00138705006316AA2A93174501D6
:102F20006392072A832B8900B3075B0193E717009D
:102F300023A2FB0083A681F463F4B60023A4B1F4BA
:102F400083A641F463F4B60023A2B1F4032C8100FC
:102F500013840B0093F7C7FF3387974063EA9738D2
:102F60009307F00063D6E738032A8101832A4101E1
:102F7000832BC100832C410093E714002322F4002B
:102F8000B3049400232499001367170013850900E4
:102F900023A2E400EF00C0458320C1021305840092
:102FA00003248102032B010183244102032901022E
:102FB0008329C10113010103678000000325490033
:102FC0006FF09FE0032684006FF09FCD03A4C7003D
:102FD00093852500E38287D86FF09FCB13D79700A6
:102FE0009306400063F2E6149306400163E4E63280
:102FF0001306C7059306B705131636003306C90036
:1030000003270600130686FF6318E6006F004029B9
:10301000032787006308E6008326470093F6C6FF70
:10302000E3E8D7FE0326C7002326C4002324E400D8
:1030300023248600232687006FF01FD91307400141
:103040006378F710130740056364F72E93D7C40025
:103050009385F7061388E706139635006FF0DFCBEC
:10306000130E1E0093773E00130585006380071042
:103070008327C5006FF09FDA0326840093E51400D0
:103080002322B4002326F60023A4C700B30494002F
:10309000232A99002328990093E7160023A61401F8
:1030A00023A4140123A2F4003307E40013850900CC
:1030B0002320D700EF00C033130584006FF09FC0BA
:1030C000B307F40003A7470013850900136717002F
:1030D00023A2E700EF00C031130584006FF09FBE0C
:1030E00093D53400938784006FF05FB993E61400A2
:1030F0002322D400B3049400232A990023289900A2
:103100009366170023A6140123A4140123A2D4005C
:10311000B307F4001385090023A0E700EF00402D5A
:10312000130584006FF01FBA13D7670013069703C7
:1031300093068703131636006FF05FEC630C2407C9
:1031400003248900032C8100832744006FF09FE053
:103150009385C7051388B705139635006FF0DFBB5D
:10316000832783009385F5FF639E672693F73500D9
:10317000130383FFE39607FE032749009347F6FFF7
:10318000B3F7E7002322F90013161600E3EEC7CECB
:10319000E30C06CE3377F600631A07001316160009
:1031A0003377F600130E4E00E30A07FE93050E0078
:1031B0006FF09FC5138C01F603270C003387EA00DC
:1031C0002320EC0083A641F39307F0FF6386F618F3
:1031D000B3874B41B387E7002320FC0093FC7B00BF
:1031E000638C0C0CB38B9B41B7170000938787004F
:1031F000938B8B00B3859741B38A5B01B3855541AF
:103200009395450113DA450193050A0013850900DA
:10321000EF0090339307F0FF6300F5183305754115
:10322000B30A450103270C002324790193E71A0010
:10323000B305EA002320BC0023A2FB00E30C24CF4B
:103240009306F00063F0660B0327440093074BFFDF
:1032500093F787FF137717003367F7002322E40003
:10326000130650003307F4002322C7002324C700AD
:1032700063E6F60083A74B006FF0DFCB9305840075
:1032800013850900EF100029832B890083250C008A
:1032900083A74B006FF01FCA938A0A016FF09FC487
:1032A00093D6264093071000B397D7003365F500F7
:1032B0002322A9006FF05FD7B3855B01B305B0404F
:1032C0009395450113DA450193050A00138509001A
:1032D000EF0090279307F0FFE312F5F4130A0000C4
:1032E0006FF05FF4032C81009307100023A2FB0012
:1032F00013850900EF00C00F13050000032A8101A8
:10330000832A4101032B0101832BC100832C41003F
:103310006FF05F9B9306400563E4E60413D7C70094
:103320001306F7069306E706131636006FF01FCD57
:10333000130740156364F70493D7F4009385870758
:1033400013887707139635006FF01F9D03248900BB
:10335000832744006FF01FC023AA71F36FF01FE8AA
:103360009306401563E4E60413D7F70013068707B6
:1033700093067707131636006FF05FC813074055A2
:103380006364F70493D724019385D7071388C7078D
:10339000139635006FF05F98938C8CFFB38A9A0177
:1033A000B38A7A41130A00006FF0DFE793064055B5
:1033B00063E4E60213D727011306D7079306C7076E
:1033C000131636006FF09FC31306803F9305F00776
:1033D0001308E0076FF05F941306803F9306E00741
:1033E0006FF0DFC1832749006FF01FDA67800000AC
:1033F000678000001305000067800000B78500802B
:10340000138601C39385458F138501C46F008034F3
:10341000130101FF8325450023248100232291000D
:1034200023261100138481F893040500638485002A
:10343000EF40404C83A58400930784066386F50023
:1034400013850400EF40004B83A5C4001304040D52
:10345000638E8500032481008320C100138504004E
:1034600083244100130101016F40C0488320C10043
:1034700003248100832441001301010167800000BF
:103480001305000067800000130101FE232C81005A
:10349000B7370080138481F89387C73F232E11002C
:1034A000232A9100232821012326310123244101CD
:1034B00023A8F1F413068000930740009305000051
:1034C0001305C4052326F40023200400232204004E
:1034D000232404002322040623280400232A0400B2
:1034E000232C0400EF001022B7070100374A0080A8
:1034F000B749008037490080B7440080130A0A9713
:103500009389499D1309C9A5938444AD9387970076
:1035100013068000930500001305440C2320440388
:10352000232234032324240323269402232AF4068B
:10353000232E8400232404062326040623280406BD
:103540002326040C232C0406232E0406232004081F
:10355000EF00501BB707020013078406938727016B
:103560001305C412130680009305000023244409A8
:103570002326340923282409232A9408232EF40C13
:103580002322E4082328040C232A040C232C040CF3
:10359000232A04122320040E2322040E2324040EC3
:1035A000EF0050169307040D2328440F232A340FED
:1035B000232C240F232E940E8320C1012326F40EE6
:1035C0000324810183244101032901018329C100CE
:1035D000032A8100130101026780000083A701F51F
:1035E000130101FE23263101232E1100232C81001B
:1035F000232A910023282101930905006386070EE1
:10360000138901C39304F0FF832749000324890031
:103610009387F7FF63D807006F0000081304840640
:10362000638C97060317C4009387F7FFE31807FE20
:10363000B707FFFF938717002326F4002322040611
:103640002320040023240400232204002328040050
:10365000232A0400232C0400130680009305000095
:103660001305C405EF00100A23280402232A0402CC
:1036700023220404232404048320C101130504002D
:103680000324810183244101032901018329C1000D
:10369000130101026780000003240900630604008F
:1036A000130904006FF05FF69305C01A1385090033
:1036B000EFF0CFD813040500630C05021305C50015
:1036C00093074000232004002322F4002324A400B5
:1036D0001306001A93050000EF00D0022320890092
:1036E000130904006FF05FF2EFF01FDA6FF05FF183
:1036F000232009009307C00023A0F9006FF0DFF733
:1037000083274503638407006780000003A701F552
:10371000B737008093870741232AF502E31607FE97
:103720006FF09FD66780000067800000B73500808B
:10373000138601C39385453F130500006F00800188
:10374000B7350080138601C3938505481305000033
:103750006F004000130101FD23202103232E3101BE
:10376000232C4101232A51012328610123267101C1
:10377000232611022324810223229102130B050028
:10378000938B0500930A0600130A000093091000AA
:103790001309F0FF83A44A0003A48A009384F4FF72
:1037A00063C804028357C40063FEF9008317E40072
:1037B0009305040013050B0063862701E7800B00C7
:1037C000336AAA009384F4FF13048406E39C24FD67
:1037D00083AA0A00E3900AFC8320C1020324810229
:1037E00083244102032901028329C101832A410163
:1037F000032B0101832BC10013050A00032A810159
:103800001301010367800000130101FC2324C1029E
:103810002326D1022328E102232AF102232C0103CB
:10382000232E11031386050083258500930681024C
:10383000232E11002326D100EF00107E8320C1012A
:10384000130101046780000003A3C1F3130101FC0D
:103850002324C1022326D1022322B1022328E1021C
:10386000232AF102232C0103232E11038325830035
:10387000930641021306050013050300232E1100D1
:103880002326D100EF0050798320C10113010104E8
:1038900067800000130101FC232C81021304050042
:1038A00013850500232A9102232E1102938405001B
:1038B000EF00500DB71701809387C7CE2324F10284
:1038C000930710002326F102032744039307010204
:1038D00093061500232AF10093072000232091026C
:1038E0002322A102232ED100232CF1008325840062
:1038F000630007068397C5001397270163420702F9
:1039000003A74506B7E6FFFF9386F6FF37260000BC
:10391000B3E7C7003377D7002396F50023A2E50667
:103920001306410113050400EF4080408320C103CA
:1039300003248103133515003305A0401375B5002A
:10394000832441031305F5FF130101046780000080
:10395000130504002326B100EFF09FDA8325C10090
:103960006FF05FF99305050003A5C1F36FF09FF2B7
:10397000130101FF23248100138405008395E500D2
:1039800023261100EF00C03563400502832704059C
:103990008320C100B387A7002328F40403248100F7
:1039A00013010101678000008357C40037F7FFFF50
:1039B0001307F7FFB3F7E7008320C1002316F400D5
:1039C000032481001301010167800000130500003A
:1039D000678000008397C500130101FE232C81003E
:1039E000232A91002328210123263101232E1100AF
:1039F00013F707101384050093040500130906004C
:103A0000938906006310070437F7FFFF1307F7FFDA
:103A1000B3F7E7008315E4002316F40003248101C3
:103A20008320C10193860900130609008329C10080
:103A300003290101138504008324410113010102BC
:103A40006F0040368395E5009306200013060000C2
:103A5000EF0080228317C4006FF01FFB130101FFEA
:103A600023248100138405008395E500232611009B
:103A7000EF0080209307F0FF6308F5028357C4002E
:103A8000371700008320C100B3E7E70093970701D1
:103A900093D707412328A4042316F40003248100AC
:103AA00013010101678000008357C40037F7FFFF4F
:103AB0001307F7FFB3F7E7009397070193D7074181
:103AC0008320C1002316F4000324810013010101A7
:103AD000678000008395E5006F00000893073000C1
:103AE00063FEC702B3E7A50093F7370063940702AC
:103AF000930630006F0040011306C6FF1305450012
:103B00009385450063FCC6000327050083A70500D5
:103B1000E304F7FE9306F6FF6F00C0009306F6FF7E
:103B20006308060293861600B306D5006F00800076
:103B30006380A6028347050003C70500130515002F
:103B400093851500E386E7FE3385E7406780000034
:103B50001305000067800000130101FF232481008A
:103B6000232291001304050013850500232611006C
:103B700023AA01F4EFC0DFB19307F0FF630CF50057
:103B80008320C1000324810083244100130101012B
:103B90006780000083A741F5E38407FE8320C1000E
:103BA0002320F40003248100832441001301010138
:103BB0006780000083A7C1F3638EA70A83254504AD
:103BC000130101FE232A9100232E11009304050006
:103BD000638C05042328210123263101232C810035
:103BE0001309000093090008B387250103A4070007
:103BF000630E0400930504000324040013850400ED
:103C0000EF005011E31804FE83A544041309490092
:103C1000E31C39FD13850400EF00D00F032481015C
:103C2000032901018329C10083A58403638605005C
:103C300013850400EF00100E83A5C40463860500FD
:103C400013850400EF00100D83A74403638C070065
:103C50008320C10113850400832441011301010263
:103C6000678007008320C101832441011301010201
:103C70006780000067800000130101FF13870500C3
:103C800023248100232291009305060013040500DC
:103C900013860600130507002326110023AA01F44A
:103CA000EFC01FAD9307F0FF630CF5008320C10048
:103CB0000324810083244100130101016780000077
:103CC00083A741F5E38407FE8320C1002320F4008D
:103CD0000324810083244100130101016780000057
:103CE000130101FF13870500232481002322910083
:103CF000930506001304050013860600130507004C
:103D00002326110023AA01F4EFC09FAA9307F0FF16
:103D1000630CF5008320C10003248100832441004B
:103D2000130101016780000083A741F5E38407FECA
:103D30008320C1002320F400032481008324410058
:103D40001301010167800000130101FF232481009A
:103D5000232291001304050013850500232611007A
:103D600023AA01F4EFC0DFB49307F0FF630CF50062
:103D70008320C10003248100832441001301010139
:103D80006780000083A741F5E38407FE8320C1001C
:103D90002320F40003248100832441001301010146
:103DA00067800000130101FF1387050023248100B1
:103DB00023229100930506001304050013860600D4
:103DC000130507002326110023AA01F4EFC05FA505
:103DD0009307F0FF630CF5008320C10003248100EA
:103DE00083244100130101016780000083A741F58E
:103DF000E38407FE8320C1002320F4000324810014
:103E0000832441001301010167800000130101FFB9
:103E100023248100B717018037140180232021015A
:103E20009387873C1307843C2326110023229100AB
:103E30003389E7406382E702135929401304843C25
:103E400093040000832704009384140013044400A7
:103E5000E7800700E3E824FF37140180B7170180EB
:103E60009387873C1307843C3389E74013592940E3
:103E70006380E7021304843C93040000832704005A
:103E80009384140013044400E7800700E3E824FF50
:103E90008320C10003248100832441000329010001
:103EA0001301010167800000130101FF2324810039
:103EB000B7170180371401809387873C1304843C33
:103EC0003304F4402322910023261100935424400C
:103ED000638004021304C4FF3304F4008327040046
:103EE0009384F4FF1304C4FFE7800700E39804FE03
:103EF0008320C100032481008324410013010101B8
:103F0000678000001303F00013070500637EC302FF
:103F10009377F7006390070A63920508937606FF8C
:103F20001376F600B386E6002320B7002322B700FD
:103F30002324B7002326B70013070701E366D7FE43
:103F40006314060067800000B306C3409396260002
:103F500097020000B38656006780C6002307B700AB
:103F6000A306B7002306B700A305B7002305B700D3
:103F7000A304B7002304B700A303B7002303B700CB
:103F8000A302B7002302B700A301B7002301B700C3
:103F9000A300B7002300B7006780000093F5F50F7A
:103FA00093968500B3E5D50093960501B3E5D5005A
:103FB0006FF0DFF69396270097020000B386560055
:103FC00093820000E78006FA93800200938707FF40
:103FD0003307F7403306F600E378C3F66FF0DFF3FC
:103FE000B3C7A50093F73700B308C500639407066D
:103FF0009307300063F0C706937735001307050079
:10400000639A070613F6C8FFB306E640930700025B
:1040100063CED70893860500930707006378C7022D
:1040200003A80600938747009386460023AE07FF48
:10403000E3E8C7FE9307F6FFB387E74093F7C7FFB0
:10404000938747003307F700B385F50063681701CE
:1040500067800000130705006378150583C7050016
:104060001307170093851500A30FF7FEE398E8FEEA
:104070006780000083C60500130717009377370099
:10408000A30FD7FE93851500E38E07F683C60500C0
:104090001307170093773700A30FD7FE93851500FA
:1040A000E39A07FC6FF01FF667800000130101FF21
:1040B000232681001304000283A3050083A2450088
:1040C00083AF850003AFC50083AE050103AE450194
:1040D00003A3850103A8C50183A6050213074702B0
:1040E000B307E640232E77FC232057FE2322F7FF59
:1040F0002324E7FF2326D7FF2328C7FF232A67FEB1
:10410000232C07FF232ED7FE93854502E346F4FABE
:1041100093860500930707006378C70203A806008B
:10412000938747009386460023AE07FFE3E8C7FE68
:104130009307F6FFB387E74093F7C7FF93874700DE
:104140003307F700B385F500636817010324C10046
:10415000130101016780000083C7050013071700E2
:1041600093851500A30FF7FEE382E8FE83C70500E1
:104170001307170093851500A30FF7FEE39EE8FCD5
:104180006FF0DFFC9377350013070500639C07048D
:10419000B7867F7F9386F6F79305F0FF0326070027
:1041A00013074700B377D600B387D700B3E7C7003C
:1041B000B3E7D700E384B7FE8346C7FFB307A74042
:1041C000638406048346D7FF638C06020345E7FF3A
:1041D0003335A0003305F5001305E5FF67800000C7
:1041E000E38806FA83470700130717009376370022
:1041F000E39807FE3307A7401305F7FF6780000029
:104200001385D7FF678000001385C7FF6780000014
:1042100083A781F5638C070403A747001308F00107
:104220006340E8081318270063060502338307017B
:104230002324C30883A88718130610003316E6004A
:10424000B3E8C80023A417192324D3109306200031
:104250006306D5021307170023A2E700B3870701FF
:1042600023A4B70013050000678000001388010C29
:1042700023AC01F59387010C6FF01FFA83A6C718D2
:104280001307170023A2E700B3E6C60023A6D7183A
:10429000B387070123A4B70013050000678000005F
:1042A0001305F0FF67800000130101FD232C41017D
:1042B0002320210303A981F5232611026308090A9B
:1042C000232E3101232A5101232861012326710164
:1042D000232481022322910223248101130B050050
:1042E000938B05009309F0FF930A10008324490083
:1042F0001384F4FF634E040493942400B3049900E0
:1043000063900B088327490083A644009387F7FF37
:10431000638C870A23A20400638606028327891818
:1043200033978A00032C4900B377F700639607069A
:10433000E78006000327490083A781F563108709FA
:10434000639E27071304F4FF9384C4FFE31A34FB2E
:1043500003248102832441028329C101832A41016C
:10436000032B0101832BC100032C81008320C10298
:1043700003290102032A8101130101036780000060
:1043800083A74410E38077F91304F4FF9384C4FFF8
:10439000E31834FF6FF0DFFB8327C91883A54408B7
:1043A0003377F7006316070213050B00E78006005A
:1043B0000327490083A781F5E30487F9E38A07F817
:1043C000138907006FF09FF2232289006FF0DFF45A
:1043D00013850500E78006006FF0DFF5130101FE8D
:1043E00023263101B7190180232C8100232A910053
:1043F0002328210123244101232E1100138A0500C3
:10440000130905009389093FEFE05FFE03A78900C8
:10441000B71700009387F7FE832447003717000083
:1044200093F4C4FF3384F400330444411354C400B0
:104430001304F4FF1314C400634EE400930500005A
:1044400013050900EFF05F9083A78900B3879700F9
:104450006308F50213050900EFE09FF98320C1010D
:104460000324810183244101032901018329C1001F
:10447000032A810013050000130101026780000078
:10448000B305804013050900EFF01F8C9307F0FF80
:104490006308F504938701F603A7070083A6890044
:1044A000B384844093E41400330787401305090064
:1044B00023A2960023A0E700EFE09FF38320C10131
:1044C0000324810183244101032901018329C100BF
:1044D000032A810013051000130101026780000008
:1044E0009305000013050900EFF01F8603A789005C
:1044F0009306F000B307E540E3DEF6F483A641F34C
:1045000093E717002322F7003305D54023A0A1F637
:104510006FF05FF463820518130101FF232481000B
:104520002322910013840500930405002326110023
:10453000EFE0DFEB0325C4FF130784FFB71501800D
:104540009377E5FF3306F7009385053F8326460002
:1045500003A8850093F6C6FF6302C81A2322D6007B
:10456000137515003308D6006310050A032384FF72
:1045700003284800371501803307674083288700E8
:104580001305853FB3876700137818006382A8146A
:104590000323C70023A66800232413016306081A17
:1045A00093E617002322D7002320F6009306F01F7E
:1045B00063ECF60693F687FF9386860003A5450015
:1045C000B386D50003A6060013D857009307100042
:1045D000B3970701B3E7A700138586FF2326A7003B
:1045E0002324C70023A2F50023A0E6002326E6002B
:1045F000032481008320C10013850400832441002B
:10460000130101016FE0DFDE03254800137515007B
:104610006306050893E61700232ED4FE2320F60038
:104620009306F01FE3F8F6F893D6970013064000C0
:104630006360D61293D667001385960313868603AC
:10464000131535003385A50083260500130585FF66
:104650006318D5006F00401583A686006308D50057
:1046600003A646001376C6FFE3E8C7FE03A5C6000F
:104670002326A7002324D700032481002324E50058
:104680008320C100138504008324410023A6E60093
:10469000130101016FE0DFD567800000371501804D
:1046A000B387D7001305853F83268600638CA60C4D
:1046B0000328C60013E517003306F70023A60601FA
:1046C0002324D8002322A7002320F6006FF01FEE3A
:1046D000631C0812832586000326C600B386F600F5
:1046E00093E7160023A6C5002324B6002322F70073
:1046F0003307D7002320D7006FF09FEF1375150005
:10470000B386D70063100502032584FF3307A74053
:104710008327C70003268700B386A6002326F6005A
:1047200023A4C70013E6160083A781F32322C70042
:1047300023A4E500E3EEF6EA83A5C1F413850400A3
:10474000EFF0DFC96FF0DFEAB387D7006FF0DFF576
:10475000130640016370D602130640056364D60653
:1047600093D6C7001385F6061386E60613153500A3
:104770006FF05FED1385C6051386B605131535007A
:104780006FF05FEC23AAE50023A8E50093E617008D
:104790002326A7002324A7002322D7003307F700EE
:1047A0002320F7006FF0DFE403A8450013562640EE
:1047B00093071000B397C700B3E7070123A2F500E2
:1047C0006FF01FEB13064015636CD60093D6F7000D
:1047D0001385860713867607131535006FF09FE65D
:1047E00013064055636CD60093D627011385D60770
:1047F0001386C607131535006FF0DFE41305803FFD
:104800001306E0076FF01FE493E617002322D7009A
:104810002320F6006FF0DFDD130101ED23261112D6
:1048200023229112232A511123267111938A050004
:10483000930406002324D100930B0500EF30506B46
:1048400083270500138507002322F102EFF09F93D1
:104850002320A10263880B0083A74B036394070006
:104860006F1040738397CA001397270163460702AE
:1048700003A74A0637260000B7E6FFFFB3E7C700E5
:104880009386F6FF9397070193D707413377D700B5
:104890002396FA0023A2EA0613F787006302072E85
:1048A00003A70A01630E072C93F7A7011307A000C3
:1048B000638AE72EB7170180232861112324811111
:1048C000130B010B938747D3371C018023248112DC
:1048D000232C4111232EB10F23202113232E31111C
:1048E000232291112320A111232E610723220108E5
:1048F00023200108232A0100232C0100232E01007C
:1049000013040B00232401022328010223220100A7
:104910002326F100130A0001130C8CEA23207101F5
:10492000938D040083C70D00638C071E93840D00D4
:10493000130750026386E72A83C714009384140088
:10494000E39A07FE3389B441638CB41D0327410801
:10495000832701082320B401330727019387170019
:10496000232224012322E1082320F10813077000E9
:1049700013048400634EF7260327410083C7040015
:10498000330727012322E100638C07189384140066
:10499000A30F01049309F0FF930B0000130900001B
:1049A0009306800503CD0400938D140093070DFE3C
:1049B00063E6F6040327C10093972700B387E70057
:1049C00083A7070067800700930B000093070DFD86
:1049D0001306900003CD0D0013972B00B30B770146
:1049E000939B1B00B38B770193070DFD938D1D00E7
:1049F000E372F6FE93070DFEE3FEF6FA63020D1274
:104A00002304A109A30F010413071000930410004D
:104A1000930C8108130F090093090000232801005B
:104A2000930F000093724F08032941086396020018
:104A3000B387EB40E342F0448347F105638A070202
:104A4000832701089306F1052320D40013091900D8
:104A500093061000938717002322D40023222109F4
:104A60002320F108930670001304840063C0F61A33
:104A7000638A0F0283270108930601062320D400CE
:104A80001309290093062000938717002322D400DE
:104A9000232221092320F1089306700013048400C7
:104AA000E3CEF64E93070008E38AF208B3899940F3
:104AB000E34E301993770F1063940774832701082E
:104AC000330999002320940193871700232294002F
:104AD000232221092320F1089306700063CCF620DD
:104AE00013048400137F4F0063060F00B384EB4070
:104AF000E342904E13830B0063D4EB0013030700D3
:104B000083274100B38767002322F100E31A0922BB
:104B100083C70D002320010813040B00E39807E06E
:104B200083274108832B0100638407006F104075C1
:104B300083D7CA00032481120329011293F70704C3
:104B40008329C111032A8111032B0111032C811028
:104B5000832C4110032D0110832DC10F63840700A6
:104B60006F10901D8320C112032541008324411240
:104B7000832A4111832BC1101301011367800000A8
:104B800093850A0013850B00EF30806B63040500EA
:104B90006F10901A8397CA001307A00093F7A7011C
:104BA000E39AE7D08397EA00E3C607D08326810023
:104BB0008320C1121386040093850A0083244112C6
:104BC000832A411113850B00832BC110130101139C
:104BD0006F1010381369090193840D006FF09FDC8A
:104BE0003389B441E394B4D783C704006FF0DFD9AD
:104BF000032501001306C10793850A00EF105054E6
:104C0000E31805F213040B006FF01FD70325010012
:104C10001306C10793850A00232EE102232CE1032A
:104C2000232A51022326F103EF109051E31205F0DD
:104C3000032941080327C103032F81038322410372
:104C4000832FC10213040B006FF09FE2832701083A
:104C5000B7160180938606D32320D40013091900C8
:104C600093061000938717002322D40023222109E2
:104C70002320F108930670001304840063D4F60027
:104C80006F108010630406006F1080458326410179
:104C900093771F00B3E7D700E38607E48327410239
:104CA000832601022320F40083270108B38526010F
:104CB0002322D400938717002322B1082320F10870
:104CC0009306700063D4F6006F10806413048400B0
:104CD0008326410193871700232094013389B6006E
:104CE0002322D400232221092320F10893067000F7
:104CF000E3D8F6DE032501001306C10793850A00F9
:104D00002326E1022328E101EF109043E31205E29C
:104D100003294108032F01010327C10213040B00DB
:104D20006FF05FDC93778900E39C07608327810045
:104D30009387770093F787FF03A707009387870080
:104D4000232CE10003A7C7FF2324F100232EE10059
:104D5000832CC10103A701EE8326810183A741EEC5
:104D600093941C0093D414001385060093850400CB
:104D70001306070093860700EF90104663040500B2
:104D80006F1000048326810103A701EE83A741EE83
:104D90001385060093850400130607009386070019
:104DA000EF8010356344A0006F108001032781015C
:104DB00093850C00130600001305070093060000FE
:104DC000EF801033635405006F1040438346F105B4
:104DD0009307700463D4A7016F108041B71C018052
:104DE000938C0CCF23280100137FF9F713073000B1
:104DF0009304300093090000638406001307170032
:104E0000937F2F00E3800FC213072700930F20002A
:104E10006FF05FC1832681009377090103A7060025
:104E2000938646002324D1006392071293760904E7
:104E300093070700E390064E634E07108346F10583
:104E400063C40904137FF9F7631E070213071000F8
:104E5000639E0920E314073C93741900930C0B0024
:104E60006382040493070003A307F10A930CF10A79
:104E70001387040063CC340323280100E39006F871
:104E80006FF01FF813090F0013079000E364F76C2D
:104E900093870703A307F10A130F09009304100077
:104EA000930CF10A13870400E3D834FD138709003B
:104EB000232801006FF09FFC8327810083AB07004C
:104EC000938747002324F100E3D80BD0B30B704144
:104ED0001369490093840D006FF0DFAC03CD0D0022
:104EE0009307A002938D1D006314FD006F10807D59
:104EF00093070DFD93059000130700001306900023
:104F000093090000E3E4F5AA03CD0D0093192700EF
:104F1000B389E900939919003387F90093070DFDD0
:104F2000938D1D00E372F6FE93090700E35007A876
:104F30009309F0FF6FF09FA7832781001369090190
:104F400003A70700938747002324F1009307070076
:104F5000E35607EEB307E0409306D00213071000B4
:104F60006F00000A1369090893840D006FF09FA376
:104F70001369090493840D006FF0DFA203278100F9
:104F8000A30F0104930410008327070013074700B1
:104F90002324E1002304F10813071000930C810877
:104FA0006FF05FA79307B002A30FF10493840D0085
:104FB0006FF05F9F1369190093840D006FF09F9E3F
:104FC0008347F105E39A07C093070002A30FF1049A
:104FD00093840D006FF01F9D1369890093840D0069
:104FE0006FF05F9C03278100136909018327070085
:104FF000130747002324E100130710009306000065
:10500000A30FD10463C80900137FF9F7E38207E413
:1050100013090F0013061000E308C7E6130620006B
:105020006306C706930C0B0013F7770013070703FB
:10503000A38FECFE93D7370013860C00938CFCFFF4
:10504000E39407FE93771900638407069307000330
:105050006300F7061306E6FFA38FFCFEB304CB4004
:10506000130F0900930C06006FF0DFE393071000A5
:105070006314F7006F10C03F9307200013090F005F
:105080006304F7006F1000219307000003268102DC
:10509000930C0B0013F7F7003307E60003470700F4
:1050A00093D74700938CFCFF2380EC00E39407FE2A
:1050B000B3049B41130F09006FF0DFDE032781006B
:1050C0001369090183270700130747002324E10020
:1050D000130700006FF09FF2832681001377090108
:1050E00083A70600938646002324D100E31607F029
:1050F00013770904E30207F09397070193D7070199
:10510000130710006FF09FEF83278100A30F0104A6
:1051100083AC070013884700E3800C32232401018D
:1051200063D409006F10400713860900930500003F
:1051300013850C00EF30803E0328810063140500C6
:105140006F10803AB30495418346F10513C7F4FF0D
:105150001357F741232401012328010033F7E4000A
:10516000130F090093090000E39A06C86FF05FC9A6
:105170008326810037870000130707832310E10689
:10518000138746002324E10037170180130747D116
:105190002324E10283A706001369290013072000D6
:1051A000130D80076FF09FE58326810013770901B7
:1051B00083A70600938646002324D100E31A07F054
:1051C00013770904E30607F09397070193D70701C4
:1051D000130700006FF09FE293770901E38407143F
:1051E000832781000327410083A7070023A0E7004E
:1051F00083278100938747002324F1006FF08FF20B
:105200009307500663DAA735832681018327C101FE
:10521000130600001385060093850700930600001F
:10522000232AE1022326E103EF80C053032FC102AA
:10523000032741036316056683270108B71601801B
:10524000938606D32320D400130919009306100077
:10525000938717002322D400232221092320F10859
:105260009306700013048400E3C0F64C83274106C4
:1052700083264101E3D8D708832741028326010210
:1052800013048400232CF4FE832701083309D9007A
:10529000232ED4FE93871700232221092320F1080F
:1052A00093067000E3CCF60E832741019384F7FF49
:1052B000E35A9082930600018327010863C4960095
:1052C0006F10003DB7160180938686EA2326E1021F
:1052D000032D010013070400930900011384040047
:1052E000930C70002328E101938406006F00C00036
:1052F000130404FFE3D6894A1309090193871700B1
:105300002320970023223701232221092320F1089B
:1053100013078700E3DEFCFC1306C10793850A0030
:1053200013050D00EF10C061E31405800329410847
:105330008327010813070B006FF09FFBB387EB4037
:105340006356F0F6930600010326010863C4F600D5
:105350006F10C01DB7160180938686EA232A91023A
:10536000930509009308000113090700930F7000CB
:10537000130704002326E103138407009384060027
:105380006F00C000130404FF63DA880493850501ED
:105390001306160023209700232217012322B108A9
:1053A0002320C10813078700E3DECFFC032501009B
:1053B0001306C10793850A00EF108058631A05F69B
:1053C00093080001130404FF832541080326010804
:1053D00013070B00930F7000E3CA88FA938604004A
:1053E000032FC10283244103930704001304070021
:1053F00013070900138905003309F9001306160085
:105400002322F4002320D400232221092320C108D1
:10541000930770001304840063DAC7E803250100D2
:105420001306C10793850A00232AE1022326E1031C
:10543000EF100051631E05EE0329410803274103C5
:10544000032FC10213040B006FF04FE6B716018063
:1054500083270108938686EA635A3A09930609006E
:1054600093087000130907002326E10313070400C3
:105470001384090093090C006F00C000130404FF9B
:1054800063588A04938606019387170023208701B7
:10549000232247012322D1082320F1081307870084
:1054A000E3DEF8FC032501001306C10793850A001B
:1054B000EF100049631E05E6130404FF832641082C
:1054C0008327010813070B0093087000E34C8AFA46
:1054D000032FC10213860900930904001304070077
:1054E00013070900138906009306060033093901E2
:1054F000938717002320D40023223401232221097B
:105500002320F108930670001304840063D4F6DAB4
:10551000032501001306C10793850A00232AE1022F
:105520002326E103EF10C041631405E0032941087D
:1055300003274103032FC10213040B006FF08FD721
:10554000032501001306C10793850A00EF10403FB1
:10555000630005DC6FF0CFDD832401088326410161
:105560009307100023209401130919009384140059
:105570009309840063DAD74A930710002322F400CA
:1055800023222109232091089307700063CC97748C
:105590008327010283264102938414003309F90012
:1055A00023A2F90023A0D900232221092320910856
:1055B000930770009389890063C297768327C1019E
:1055C000832681011306000093850700832741018C
:1055D00013850600930600002326E1022328E1013B
:1055E0001384F7FFEF800018032F01010327C10286
:1055F00063040548938C1C009384140033098900CC
:1056000023A0990123A289002322210923209108A4
:105610009307700093898900E3C2971483260103DE
:105620009307C106938414003389260123A0F9004F
:1056300023A2D90023222109232091089307700077
:105640001384890063D097CA032501001306C1079C
:1056500093850A002326E1022328E101EF10402E62
:10566000631805CC032941080327C102032F010158
:1056700013040B006FF00FC7930600010326010807
:10568000E3D6F668B7160180938686E9232E910249
:1056900093050900930800011309070093037000A4
:1056A000130704002326F103232A5102232CE103CC
:1056B00013840700938406006F00C000130404FFE6
:1056C00063DA8804938505011306160023209700EA
:1056D000232217012322B1082320C10813078700C2
:1056E000E3DEC3FC032501001306C10793850A000E
:1056F000EF100025631E05C293080001130404FF88
:10570000832541080326010813070B00930370004B
:10571000E3CA88FA93860400832FC10283224103DF
:10572000032F81038324C10393070400130407009C
:1057300013070900138905003309F9001306160041
:105740002322F4002320D400232221092320C1088E
:10575000930770001304840063D0C7AE03250100D3
:105760001306C10793850A00232EE102232CE103CF
:10577000232A51022326F103EF10801C631A05BA75
:10578000032941080327C103032F81038322410317
:10579000832FC10213040B006FF00FAA0325010031
:1057A0001306C10793850A00232CE102232AE10393
:1057B00023265102EF10C018631C05B603294108C7
:1057C00003278103032F41038322C10213040B002B
:1057D0006FF04FAD9306000183270108E3D2965482
:1057E000B7160180938686E9138D040093090001A2
:1057F000930C70002328E100938406006F00C00022
:10580000130D0DFF63D6A90513090901938717002E
:105810002320940023223401232221092320F1088C
:1058200013048400E3DEFCFC032501001306C1071A
:1058300093850A00EF10C010631C05AE130D0DFF19
:10584000032941088327010813040B00E3CEA9FBB9
:10585000032701019386040093040D003309990086
:10586000938717002320D4002322940023222109A8
:105870002320F1089306700063DEF6A603250100DD
:105880001306C10793850A002328E100EF10400B9F
:10589000631005AA03294108032701016FF08FA5B2
:1058A000032641066354C0BA8327410183260101C0
:1058B0009389070063C8F62C6356300383270108D9
:1058C00033093901232094019387170023223401DF
:1058D000232221092320F108930670001304840079
:1058E000E3CEF61A93C7F9FF93D7F741B3F9F9005E
:1058F00083270101B389374163403037832641064E
:105900008327410163D6F62883274102032601023B
:1059100013048400232CF4FE832701083309C900F3
:10592000232EC4FE93871700232221092320F10888
:1059300013067000E342F63083274101032601017C
:10594000B386D740B389C74063D436019389060034
:10595000635A300383270101032601083309390103
:10596000B38CFC001306160023209401232234017B
:10597000232221092320C108930770001304840007
:10598000E3C0C73213C6F9FF1356F641B3F7C90097
:10599000B384F6406358909493060001832701086E
:1059A000E3D8964EB7160180938686EA2326E10255
:1059B000032D010013070400930900011384040060
:1059C000930C70002328E101938406006F00C0004F
:1059D000130404FF63D6895C130909019387170038
:1059E0002320970023223701232221092320F108B5
:1059F00013078700E3DEFCFC1306C10793850A004A
:105A000013050D00EF00D0736314059203294108BC
:105A10008327010813070B006FF09FFB930400001E
:105A2000930C0B006FF00FC893761F00E39606B43B
:105A30002322F400232221092320910893077000D8
:105A4000E3DE97BC032501001306C10793850A0016
:105A50002326E1022328E101EF00906E631A058CF2
:105A600003294108832401080327C102032F0101F0
:105A700093090B006FF09FBA832641019307100032
:105A8000E3DED7B893071001E3DED73EB7160180F7
:105A9000938686EA93870900930C00019309070017
:105AA000130D7000130709002328E1011389060074
:105AB0006F00C000130404FF63DA8C701307070142
:105AC0009384140023A0270123A297012322E10835
:105AD0002320910893878700E35E9DFC0325010046
