:0200000480007A
:100000006F00804A6F00C02A6F0000496F00C0482F
:100010006F0080486F0040486F0000486F00C04785
:100020006F0080476F0040476F0000476F00C04679
:100030006F0080466F0040466F0000466F00C0456D
:100040006F0080456F0040456F0000456F00C04461
:100050006F0080446F0040446F0000446F00C04355
:100060006F0080436F0040436F0000436F00C04249
:100070006F0080426F0040426F0000426F000053EB
:1000800097410100938181A417010300130181F7B7
:1000900017050000130505F713651500731055309B
:1000A000138581F4138681253306A640930500004D
:1000B000EF50907A17650000130585F4EF4000605B
:1000C000EF50106A130500009305000013060000AE
:0C00D000EF0000016F40C05F678000007F
:1000E000130101812326117E2324817E2322917E08
:1000F0002320217F232E317D93060000130101FD73
:10010000130600009305000013050020EF30407235
:10011000630A0516130405001715010013050506EB
:10012000EF50406B732920B0F32900B09715010000
:10013000938585101306010013050400EF30500F5E
:10014000F32420B0B3842441F32200B0171501003A
:100150001305C50333893241EF50C0671307090007
:100160009386040013060900938504001715010007
:100170001305C502EF500041371600001306068034
:10018000972501009385458B13050100EF50502AF8
:1001900093090500631E0502171501001305850765
:1001A000EF50406313050400EF40005613010103B4
:1001B0008320C17E138509000324817E8324417E30
:1001C0000329017E8329C17D1301017F678000001F
:1001D00017150100130585FFEF50C05FB71700002A
:1001E00013830780130401003309230097140100CF
:1001F0009384C401031624008315040013850400AE
:1002000013040402EF500038031664FE831544FE05
:1002100013850400EF5000370316A4FE831584FEF7
:1002200013850400EF5000360316E4FE8315C4FE68
:1002300013850400EF500035031624FF831504FFD7
:1002400013850400EF500034031664FF831544FF48
:1002500013850400EF5000330316A4FF831584FFB9
:1002600013850400EF5000320316E4FF8315C4FF2A
:1002700013850400EF500031E31E24F793091000AA
:100280006FF0DFF217150100130505EEEF508054F3
:10029000930910006FF09FF10000000000000000C3
:1002A0001305000067800000130000001300000029
:1002B0001305000067800000130000001300000019
:1002C0001305000067800000130000001300000009
:1002D00013050000678000001300000013000000F9
:1002E00013050000678000001300000013000000E9
:1002F00013050000678000001300000013000000D9
:1003000013050000678000001300000013000000C8
:1003100013050000678000001300000013000000B8
:1003200013050000678000001300000013000000A8
:100330001305000067800000130000001300000098
:100340001305000067800000130000001300000088
:100350001305000067800000130000001300000078
:100360001305000067800000130000001300000068
:100370001305000067800000130000001300000058
:100380001305000067800000130000001300000048
:100390001305000067800000130000001300000038
:1003A0001305000067800000130000001300000028
:1003B0001305000067800000130000001300000018
:1003C0001305000067800000130000001300000008
:1003D00013050000678000001300000013000000F8
:1003E00013050000678000001300000013000000E8
:1003F00013050000678000001300000013000000D8
:1004000013050000678000001300000013000000C7
:1004100013050000678000001300000013000000B7
:1004200013050000678000001300000013000000A7
:100430001305000067800000130000001300000097
:100440001305000067800000130000001300000087
:100450001305000067800000130000001300000077
:100460001305000067800000130000001300000067
:100470001305000067800000130000001300000057
:100480001305000067800000130000001300000047
:100490001305000067800000171501001305D5AF94
:1004A000EF5040336FF05FFF130101FC2320110078
:1004B0002322A1002324B1002326C1002328D10038
:1004C000232AE100232CF100232E01012320110314
:1004D0002322510223246102232671022328C1030F
:1004E000232AD103232CE103232EF103F32220340A
:1004F00013032000638862021303B0006388620064
:1005000013033000638862006F00C002EF00403EBA
:100510006F004003171501001305C5A3EF50802B92
:100520006F004002171501001305C59DEF50802A8A
:100530006F004001171501001305E5A3EF50802956
:100540006F004002F32210340383020013053000D1
:100550003373A3006314A3009382220093822200CA
:10056000739012348320010003254100832581000C
:100570000326C1008326010103274101832781014E
:100580000328C1018328010283224102032381023F
:100590008323C102032E0103832E4103032F810312
:1005A000832FC10313010104730020307300203036
:1005B0003305A04023AEA1F41305F0FF67800000CF
:1005C000971701009387879F13085005370700107E
:1005D0002320070183C61700638006062320D70067
:1005E00083C22700638A02042320570003C3370015
:1005F000630403042320670083C34700638E030260
:100600002320770003C55700630805022320A700B5
:1006100083C56700638205022320B70003C6770005
:1006200093878700630A06002320C70003C80700DA
:10063000E31008FA678000006780000013000000E4
:100640009307800523AEF1F41305F0FF67800000E7
:100650009307800523AEF1F41305F0FF67800000D7
:100660009307800523AEF1F41305F0FF67800000C7
:100670009307800523AEF1F41305F0FF67800000B7
:100680009307800523AEF1F41305F0FF67800000A7
:100690001305F0FF67800000130000001300000046
:1006A0009307C00023AEF1F41305F0FF678000004C
:1006B000B707048023A0A700730050106F0000004C
:1006C0009307800523AEF1F41305F0FF6780000067
:1006D0009307B00023AEF1F41305F0FF678000002C
:1006E000B727000023A2F500130500006780000073
:1006F0009307800523AEF1F41305F0FF6780000037
:100700009307800523AEF1F41305F0FF6780000026
:10071000930780FA23AEF1F4130500006780000010
:100720001305100067800000130000001300000094
:10073000930780FA23AEF1F41305F0FF6780000001
:100740001305F5FF13351500678000001300000046
:100750009307600123AEF1F41305F0FF67800000FA
:100760009307F00123AEF1F41305F0FF678000005A
:100770001305000067800000130000001300000054
:100780009307800523AEF1F41305F0FF67800000A6
:100790001305F0FF67800000130000001300000045
:1007A0009307800523AEF1F41305F0FF6780000086
:1007B0001305000067800000130000001300000014
:1007C000B727000023A2F500130500006780000092
:1007D0001305F0FF67800000130000001300000005
:1007E0001305F0FF678000001300000013000000F5
:1007F0009307200023AEF1F41305F0FF678000009B
:100800009307800523AEF1F41305F0FF6780000025
:100810009307A00023AEF1F41305F0FF67800000FA
:10082000130101FF23202101138981F4832709008B
:1008300023248100232291002326110093840500A4
:1008400013040600638A070213060400938504005C
:1008500017350100130585A7EF0080598320C100DB
:1008600013050400032481008324410003290100AF
:100870001301010167800000B7C5010013063000B5
:100880009385052017350100130545A4EF00404965
:1008900093021000232059006FF01FFB130000008B
:1008A00023ACA1F2130500006780000013000000D4
:1008B000138781F3032307003305A3002320A70038
:1008C000637C250097F202009382C2736376550021
:1008D00013050300678000009307C0001303F0FFB7
:1008E00023AEF1F41305030067800000130000003D
:1008F000130101FF23229100232611009307100802
:100900009384050063CC170D9307F00263D6170399
:10091000938008FD9302100563E41202170301009F
:100920001303036C93982000338768008323070028
:10093000B385630067800500930E1001638AD80FAA
:10094000930450051707010013074767B70F0010FE
:1009500023A09F0083471700638E070423A0FF0096
:10096000834027006388000423A01F0083423700D0
:100970006382020423A05F0003434700630C030269
:1009800023A06F00834857006386080223A01F013D
:10099000834367006380030223A07F0083457700C1
:1009A000638A05001307870023A0BF008344070064
:1009B000E39004FA8320C100832441001301010164
:1009C000678000008320C100130E800523AEC1F5AF
:1009D0008324410013010101678000009300F0406F
:1009E000E3C010F79302F03F63D61203938808C068
:1009F0001303F000E36613F5170701001307C7722E
:100A0000939328003385E300832505003386E500B2
:100A100067000600130EC00AE38EC8F963461E0382
:100A2000130F9009E388E8F9930F900AE39AF8F11D
:100A3000130F80FA23AEE1F56FF0DFF737250000E2
:100A400023A2A4006FF01FF7930E600DE39AD8EF76
:100A500023ACA1F26FF01FF61308F00123AE01F5ED
:100A60006FF05FF59306200023AED1F46FF09FF492
:100A7000370404802320A400730050106F0000008E
:100A80009304600123AE91F46FF0DFF22320210183
:100A9000138981F42324810013040600032609002E
:100AA00063060602130604000324810003290100E3
:100AB0008320C10093850400832441001735010081
:100AC0001305C580130101016F008032B7C6010014
:100AD0001306300093850620172501001305057FB6
:100AE000EF00002413081000232009016FF09FFB82
:100AF0008327C500638807208328050163840820B5
:100B00000328050003469500032745018346480155
:100B1000B3E2C600A304550013F306026302031EEA
:100B2000B383E84093050001138F030063F475005D
:100B3000130F0001638AE81C338EE700834E0E001A
:100B4000930F1700130610002300D801232AF50184
:100B50006370761AB386F70183C206001303270079
:100B60009305200023005800232A650063F27518BE
:100B7000338E6700834E0E00130637009306300055
:100B80002300D801232AC50063F47616B382C70078
:100B900003C3020093054700130E400023006800C2
:100BA000232AB50063767E14B38EB70083C60E0089
:100BB00013065700930250002300D800232AC500D3
:100BC00063F872123383C70083450300930E6700F6
:100BD000130E60002300B800232AD501637A7E102B
:100BE000B386D70183C20600130677001303700093
:100BF00023005800232AC500637C730EB385C70009
:100C000083CE050093068700130E80002300D801D1
:100C1000232AD500637E7E0CB382D70003C3020073
:100C2000130697009305900023006800232AC5004F
:100C300063F0750CB38EC70083C60E009302A70045
:100C4000130EA0002300D800232A550063727E0AE9
:100C500033835700834503001306B700930EB0009B
:100C60002300B800232AC50063F47E08B386C700BA
:100C700083C206001303C700130EC00023005800F0
:100C8000232A650063767E06B385670083CE050060
:100C90001306D7009306D0002300D801232AC500ED
:100CA00063F87604B382C70003C302009305E7002C
:100CB000130EE00023006800232AB500637A7E0249
:100CC000B38EB70083C60E001306F7009302F00040
:100CD0002300D800232AC50063FC7200B387C70035
:100CE00003C307001307070123006800232AE50058
:100CF00093050000638403009305FFFF3387F5012C
:100D00006384E800678000008348480023280500CA
:100D100013F5D80F2302A80067800000130000001D
:100D2000130101FE232A910083240500232C810056
:100D30002328210123263101232E110023820400C0
:100D400023840400930770FC2384F40023880400A8
:100D50002322B5001304050013890500930906003A
:100D6000930600001386050037D512139305000083
:100D7000EF30C04BB7028000637455029350F5000A
:100D8000130700F82386E40013F3F00F13557500E2
:100D9000238264009373F50F23807400238604007C
:100DA0002386340123043401A304040097050000C2
:100DB000938545D4232224018320C10123280400E4
:100DC00023260400232A0400232E0400232C0400DD
:100DD000232204022320B40203248101832441013D
:100DE000032901018329C10013010102678000006A
:100DF000130101FF23260100638C0522630A0622EA
:100E0000032505003386C5009307100303474501FA
:100E1000232601008326C1009372F70F63E2D70AED
:100E20000323C10093031300232671000328C1008C
:100E300063E807098328C100138E18002326C10127
:100E4000832EC10063EED707032FC100930F1F004D
:100E50002326F1010327C10063E4E7068326C100CE
:100E600013831600232661008323C10063EA7704FD
:100E70000328C1009308180023261101032EC10086
:100E800063E0C705832EC100138F1E002326E101F6
:100E9000832FC10063E6F7030327C1009306170001
:100EA0002326D1000323C10063EC67008323C10024
:100EB00013881300232601018328C100E3F217F7EA
:100EC00093F20202E38402F423260100032EC10000
:100ED00063E2C70B832EC100138F1E002326E1019E
:100EE000832FC10063E8F7090327C10093061700A9
:100EF0002326D1000323C10063EE67068323C100CC
:100F000013881300232601018328C10063E4170717
:100F10008322C100138E12002326C101832EC1003B
:100F200063EAD705032FC100930F1F002326F101A9
:100F30000327C10063E0E7048326C1001383160082
:100F4000232661008323C10063E677020328C100E2
:100F500093081800232611018322C10063EC570077
:100F6000032EC100930E1E002326D101032FC100C2
:100F7000E3F2E7F783CF05002300F5012326010004
:100F80000327C10063E2E70A8326C100138316002A
:100F9000232661008323C10063E877080328C1008A
:100FA00093081800232611018322C10063EE57061F
:100FB000032EC100930E1E002326D101032FC10072
:100FC00063E4E707832FC10013871F002326E10096
:100FD0008326C10063EAD7040323C10093031300EF
:100FE000232671000328C10063E007058328C100A0
:100FF0009382180023265100032EC10063E6C70325
:10100000832EC100138F1E002326E101832FC10010
:1010100063ECF7010327C100930617002326D100D4
:101020000323C100E3F267F693851500E390C5DE64
:10103000130101016780000013000000130000008D
:101040006388050E03C605006304060E83270500AA
:10105000130101FF9386150003C747019372F70F31
:10106000A30751000343F100937303026396030A3D
:1010700003C547019375F50FA307B1000348F100BD
:1010800093780802639A080803CE4701937EFE0F07
:10109000A307D101034FF100937F0F02639E0F0658
:1010A00003C747019372F70FA30751000343F100F1
:1010B000937303026392030603C547019375F50F0B
:1010C000A307B1000348F10093780802639608046F
:1010D00003CE4701937EFE0FA307D101034FF1001A
:1010E000937F0F02639A0F0203C747019372F70FB2
:1010F000A30751000343F10093730302639E0300AF
:1011000003C547019375F50FA307B1000348F1002C
:1011100093780802E38208F4938616002380C700C0
:1011200003C6F6FFE31A06F213010101678000000F
:10113000678000001300000013000000130000008F
:10114000630C0602638A0502032705009706000068
:101150009386469A2326B500834747002328C50077
:10116000232A05002320D50293E2270023025700FB
:10117000732340F16304030067800000B723000C71
:10118000172601001306861483A503003305C54006
:101190001338150093081000339E0801B36EBE008B
:1011A00023A0D3016780000013000000130000009B
:1011B00083270500034795008326050183C2470165
:1011C00033E3E200A304650093F3F20F6398060093
:1011D00013D5630013751500678000001305000028
:1011E00067800000130000001300000013000000DF
:1011F0009307050063800518630E06160327050094
:101200000345950083464701B3E2A600A384570037
:1012100013F31600630003169373360013050000E2
:10122000638C0308130810006380030793082000F1
:101230006386130303470700130510002380E500AE
:1012400003A7070003CE9700834E470133EFCE017B
:10125000A384E70193FF1E0063820F1283460700F9
:10126000B382A500130515002380D20003A7070051
:1012700003C397008343470133E86300A384070156
:1012800093F81300638C080E034E07003387A50004
:10129000130515002300C70103A7070083CE97009D
:1012A000034F4701B36FDF01A384F70193761F005B
:1012B0006386060C6306A60C83420700B383A50071
:1012C000130515002380530003A8070003CE9700E1
:1012D0003383A5000347480193080500B36EC70197
:1012E000A384D701137F1700630A0F08834F0800F8
:1012F00013051500B382A5002300F30183A30700A3
:1013000083C6970003C343013368D300A384070156
:10131000137E130063040E0603C703001385280021
:10132000B38EA5002380E20003AF070083CF9700B0
:1013300083424F01B3E3F201A384770093F61200D6
:10134000638E060203430F001385380023806E006E
:1013500003A7070083C89700034E470133681E01A7
:10136000A3840701937E1E00638A0E00E316A6F491
:1013700067800000130500006780000067800000A0
:10138000678000001300000013000000130000003D
:10139000F32740F163960702B726000C17270100D8
:1013A0001307C7F203A60600B302E54013B3120009
:1013B0009303100033986300B368C80023A016019C
:1013C000370E0100930EFEFF638CD5010325050047
:1013D00093F5F500034F4500B36FBF002302F501FD
:1013E00067800000130000001300000013000000DD
:1013F000638E05029307000C63EAC702032705000A
:10140000232EB5008342870013F3F203B363C300B6
:1014100093F5F30F2304B7000346470093661600C5
:101420002302D700732840F163040800678000009E
:10143000B728000C972E0100938E4EE903AE0800EA
:101440003305D541133F1500930F1000B397EF01FB
:1014500033E7C70123A0E800678000001300000005
:1014600063840502032705002320B5022326050017
:10147000834747002328050093E2270023025700F3
:10148000732340F16304030067800000B723000C5E
:1014900097250100938585E383A603003305B540B6
:1014A0001336150013081000B318C80033EED80027
:1014B00023A0C30167800000130000001300000098
:1014C00063800502032705002322B50283474700F6
:1014D00093E2870023025700732340F16304030063
:1014E00067800000B723000C97250100938505DE77
:1014F00083A603003305B54013361500130810000A
:10150000B318C80033EED80023A0C30167800000E1
:10151000638805126306061283270500834695003B
:1015200003C74701B362D700A30455001373070232
:1015300063080310930300011305060063F4C3005E
:101540001305000103C8050093081000238007015C
:1015500063FAC80E03CE1500930E20002380C70146
:1015600063F2CE0E03CF2500930F30002380E701F6
:1015700063FACF0C83C63500130740002380D700E1
:101580006372C70C83C245001303500023805700C9
:10159000637AC30A83C35500130860002380770071
:1015A0006372C80A83C86500130E70002380170198
:1015B000637ACE0883CE7500130F80002380D70195
:1015C0006372CF0883CF8500930690002380F701D4
:1015D00063FAC60683C295001307A0002380570054
:1015E0006372C70603C3A5009303B000238067009E
:1015F00063FAC30403C8B5009308C0002380070141
:1016000063F2C80403CEC500930ED0002380C70147
:1016100063FACE0203CFD500930FE0002380E701E9
:1016200063F2CF0283C6E5009302F0002380D70067
:1016300063FAC20083C5F5002380B700678000000D
:101640001305000067800000130000001300000075
:10165000832705000347950083C24701A3040500C3
:1016600033E5E2001375E509678000001300000010
:101670008327050003C58701678000001300000071
:1016800003270500834795008342470133E3F200B7
:10169000A304650013F50206678000001300000034
:1016A000032705008347C70093E20704230657007A
:1016B000678000001300000013000000130000000A
:1016C000032705008347C70093F2F70B2306570053
:1016D0006780000000000000000000000000000023
:1016E000130101F923229106232C4105832447008D
:1016F000032A0700232A5105930A060033089A0299
:101700002320A10523261106232481062320210757
:1017100023229105232EB103232E310523286105B1
:1017200013061000338D5603931028001304050090
:1017300013890500938C0700B30D1500131D2D00B0
:101740006386C43C2326710523248105B30B5A0309
:1017500013890A0093098700139C2400130B0500CA
:10176000138E0500930A05001384060013050B0071
:1017700093870C00138709009306040013860B005F
:1017800093050E002322C101EFF09FF58322410053
:10179000330B8B0193870C003383A201138709005D
:1017A0009306040013860B0013050B00930503003A
:1017B000638E6D1323226100EFF09FF283234100BB
:1017C000330B8B0193870C00B388A30123221101F3
:1017D000138709009306040013860B0013050B0002
:1017E0009385080063846D11EFF09FEF832541001E
:1017F000330B8B0193870C00338EA5012322C1018B
:10180000138709009306040013860B0013050B00D1
:1018100093050E00638C6D0DEFF09FEC832E41005D
:10182000330B8B0193870C00338FAE012322E10130
:10183000138709009306040013860B0013050B00A1
:1018400093050F0063846D0BEFF09FE9832F410038
:10185000330B8B0193870C003388AF0123220101E6
:10186000138709009306040013860B0013050B0071
:1018700093050800638C6D07EFF09FE6832241001B
:10188000330B8B0193870C003383A2012322610069
:10189000138709009306040013860B0013050B0041
:1018A0009305030063846D05EFF09FE383234100FC
:1018B000330B8B0193870C00B388A3012322110102
:1018C000138709009306040013860B0013050B0011
:1018D00093850800638C6D01EFF09FE003254100C4
:1018E000330B8B01330EA501E3926DE9832BC10409
:1018F000032C810413840A00930A0900930D40000D
:1019000083A9CC00630CBA7D63C64D39130D20004A
:10191000E300AA57130B3000E3146A1F13992A003F
:10192000B38724031307100093922400B385F900B2
:10193000039A25006384EA006F10C0133307540034
:1019400037390000B305570013830900930AA9AA89
:10195000374D0000031504008318240003A8090074
:10196000330F5503B38D5803330BAF01935CFB402A
:1019700023109401B383AD0113D6F3402311C400A7
:10198000831F070083102700B38E5F03B3875003C4
:10199000B382AE0113DEF2402310C701B386A70164
:1019A00013D9F640231127010395050083982500DC
:1019B000032F0700B30D5503338B5803B38CAD01D0
:1019C00093D3FC40239075003306AB01935FF64040
:1019D0002391F5017B280F0183A00500832E0300CE
:1019E000FBA2D00193170801139E020113550E01AB
:1019F00013D90701B30DA90083580400135B080134
:101A000093960D0193DC0201B30F9B4113DF064156
:101A100093531F4013980F01338678409350084129
:101A20002310C700B3029B01B3884003835E2400E8
:101A30009397020113DE07413309A94093561E40D4
:101A400013150901338FDE40135B05412311E701B4
:101A5000B30F4B03835C040083532400B380A801BD
:101A6000B38D9D01338672002310B4012311C4008D
:101A70000358070093DEF04093920E0193D80201C1
:101A8000B38708012390F500B386AF01035E2700FA
:101A900013DFF64013190F0113550901330BAE4044
:101AA00023916501835C0700835327009384F4FF2F
:101AB000B38F1C41B30D75002310F7012311B7013B
:101AC000938949001303830013044400130747005C
:101AD00093854500E39004E88320C1060324810632
:101AE00083244106032901068329C105032A8105B0
:101AF000832A4105032B0105832C4104032D010496
:101B0000832DC1031301010767800000B387AD4037
:101B10009386C7FF13D7260013061700937076002D
:101B2000130705006382000C6382900A930920006A
:101B300063823009930530006382B006930E400043
:101B40006382D005130F50006382E003930F60009F
:101B5000E392F0650353090013074700231E67FE55
:101B6000835329003309A901231F77FE83580900F5
:101B700013074700231E17FF035B29003309A90140
:101B8000231F67FF0355090013074700231EA7FE05
:101B9000035E29003309A901231FC7FF83570900EA
:101BA00013074700231EF7FE835629003309A901B6
:101BB000231FD7FE0356090013074700231EC7FE45
:101BC000835029003309A901231F17FE83590900F7
:101BD00013074700231E37FF835529003309A90146
:101BE000231FB7FEE38CEDD0835E0900330FA901FC
:101BF000130707022310D7FF03582900B30FAF01C3
:101C0000B382AF01231107FF83530F003383A20177
:101C1000330BA301231277FE83582F00330EAB0141
:101C2000B307AE01231317FF03D50F003389A701B4
:101C30002314A7FE83D62F002315D7FE03D6020058
:101C40002316C7FE83D02200231717FE83590300F3
:101C5000231837FF835523002319B7FE835E0B003B
:101C6000231AD7FF035F2B00231BE7FF835F0E00C0
:101C7000231CF7FF03582E00231D07FF83D2070004
:101C8000231E57FE03D32700231F67FEE39EEDF4B8
:101C90006FF0DFC69300500063141A662324810599
:101CA000338C9A02939D2400B308B4013383B801A6
:101CB000330EB3013308BE0193162C003386D900CE
:101CC00003172600B303D600031D0600232AE100F4
:101CD00083900300839C2300E350907423267105B6
:101CE000930B1000E39E7A73B7270000130C0700D4
:101CF000938D090023243101232631012322010081
:101D0000138B9799B74F0000232E910023283101A0
:101D1000831304008312240003268100338A6303A3
:101D200003290600338F6203B305FA0113D7F54088
:101D30002310E400B306FF0193DEF6402311D40123
:101D40000395080083942800B30A6503B3896403EC
:101D5000B387FA0193DBF74023907801B383F9014D
:101D600093D2F34023915800031A0300031F23006A
:101D700003A60800B3056A0333076F03B386F501B2
:101D800093DEF6402310D3013305F7019354F54059
:101D900023119300831A0E0083192E00B3876A0360
:101DA000B38B6903B383F70193D2F34023105E0032
:101DB000338AFB01135FFA402311EE0183150800FB
:101DC00003172800B3866503B30E67033385F60156
:101DD0009354F54023109800B38AFE0193D9FA403A
:101DE0002311380183172400232AF100FB2B26013D
:101DF000032601010329030083230600FB22790047
:101E0000032A0E0003AF0D00FB26EA018325C10063
:101E10000327080083AE05007B25D70193940B01AF
:101E20009319050113D70B0113990601939B020126
:101E300093DA0401935505011356090193D709015B
:101E400013D50B01330AB700330FC50093D9020134
:101E500093D60601B382FA00B383D900939E0201A0
:101E6000931B0F013305C540232C5101B389D94081
:101E7000931A0A0193D40E0113DA0A01139903018C
:101E800093DA0B019396090193190501035541015A
:101E90009353090193920401939E0A013307B740BB
:101EA00013DF0241931B0A0193D20E41131607015F
:101EB000330A7A001399030113570641B30345010E
:101EC0003306ED038325810193DE0B41935B0941CA
:101ED000B387F540139907019355094193D70941F9
:101EE0000329410083590400338A500223117400EE
:101EF00083238100B3845401B38A990093041900A9
:101F00002322910013894300832401013306F60143
:101F1000330AFA012310540123242101935AF64075
:101F20001359FA40B38A2A0113868400B3845901F5
:101F30002328C1001396040113590601B303DD03DE
:101F4000032AC10093D6064193884800930A0A01E8
:101F5000232651011308480013034300130E4E00BB
:101F60001304440033867003B383F30193DAF34020
:101F7000938DCD00330AF6011356FA40B383CA009D
:101F8000B30A7500B304EC02139A0A0113560A014E
:101F9000B383DC02B384F40193D4F440B38AF30135
:101FA00093D3FA40B3847400939A040193D30A0143
:101FB000B3047940B30A7900330ABC02239E98FE29
:101FC0003389FC02330AFA019353FA40338FE0035A
:101FD000B304F90113D9F440338A230193130A019E
:101FE00093D4030133099600239F28FF231E58FF33
:101FF00033069640B3025D02B30AFF0113DFFA40D5
:10200000231FC8FEB38ED003338AF2019353FA40E4
:10201000B3047F00B389990013990901135609018C
:10202000B30B7D03B382FE0193DAF240B306DC0208
:10203000338FFB01935EFF40338ADA01330545019C
:102040009313050193D403013387EC02B389F6019E
:1020500013D9F940931B090193D20B01B385BC023C
:10206000B30AF70193D6FA40139F0601135A0F01E2
:10207000B38E4241B3035A403305D601B30976000B
:10208000231EA3FEB307FC023386F5011357F64067
:1020900013190701935B09010325C1018323410043
:1020A000B382F70193D5F240939A050193D60A01C2
:1020B000338FDB40338AE401B38E7641231F43FF25
:1020C000B384D401231E3EFF231F9EFEE31275C47A
:1020D000832BC104032C81046FF01FA003AD4C00BF
:1020E000139A1A00B30C5A011399240093902A00F2
:1020F000139E3A0013982C0063160D64930C100085
:1021000063849A016F10402A33052401B305250129
:10211000B38725011383090093880900B7400000A5
:1021200003180400031E240003AD09009312D80015
:10213000931DDE00B38A0241B38FCD41338B1A0069
:10214000338A1F001356FB40935CFA402310C400EF
:10215000231194018313050003192500939ED300D6
:10216000131FD900B3867E4033072F4133881600F2
:10217000330E17009352F840935DFE402310550034
:102180002311B501839A0500839F2500032B0500C9
:10219000139ADA001396DF00B30C5A41B303F641E9
:1021A00033891C00B38E1300135FF94093D6FE40B1
:1021B0002390E5012391D50003980700039E270093
:1021C0009312D8001317DE00B38D0241B30AC74142
:1021D000B38F1D00338A1A0013D6FF40935CFA4078
:1021E0002390C700239197017B2DAB0103AB050022
:1021F00083A308007B297B0083AE0700032F030025
:102200007BA8EE01835D040083562400131E0D019C
:1022100013170801931A090193520E01935C0701E9
:10222000135B080113D60A0193530901135D0D01D5
:10223000B38FCD00B38E7600338A920133096D01DE
:10224000139F0F01139E0E01931A0A01931F090198
:1022500013580F0113570E0193DE0A0113DA0F0111
:102260002311E400231004013309D841330F4741FF
:10227000239025012391E50103580400035E240007
:10228000B3867640B38DCD4013960D0113970601AA
:1022900093530601935A0701338F0E01B38F5A40AF
:1022A000B30ECA01338A63412310E4012311D40120
:1022B00033094D013388FC01338DA341B38C9A411E
:1022C0002310250123110501330BAB01B3829201C9
:1022D00023906701239157009384F4FF9389490069
:1022E000938888001303C3001304440013054500BA
:1022F0009385450093874700E39404E26FF0CFFD98
:10230000131D2A0013050D0003A90C00EF20003F48
:10231000631405006F104049635490641306100065
:10232000E39EC450635E40639300CDFF93D22000D0
:10233000B78C00001387FCFFB708010093FE120062
:10234000B34F47031308040013060500330DAD0017
:10235000130B0400B7430000938DF8FF63940E0441
:10236000831604008315240013064500130B440054
:10237000B387F603338FF50333837700135EF3409F
:1023800093100E0193D20001B3FEB201B30C7F0093
:1023900013D7FC4093180701B3E61E012320D50094
:1023A0006300CD0883150B00031F2B0083174B0020
:1023B000338EF50303136B0013068600130B8B009B
:1023C000B306FF03B3027E0093DEF240939C0E013E
:1023D00013D70C01B378B701B380F703B38276004B
:1023E00093DEF240939C0E0133E79801232CE6FE26
:1023F0003303F303B385700093D7F540139F0701B0
:10240000135E0F01B370BE01B308730093D6F8409A
:1024100093950601B3E7B000232EF6FEE314CDF842
:10242000035E0500835E2500930F10002310C40196
:102430002311D4016306FA539305000093080000AA
:1024400013034500330D9A4093733D0003170400B6
:102450008312240093060300138F040093070000E7
:102460006382030E930D1000638AB30913062000E4
:102470006384C3049387050063C42501B3872541A2
:10248000139B2700338F690183200300832C0F00E7
:10249000FBA6900193DF06413387E600B3825F001D
:1024A000131D07019393020113570D4193D203416A
:1024B000138F140093064300B387B70063C427014A
:1024C000B3872741939D2700338BB90103A60600EC
:1024D00083200B00FB2C160093DF0C413387EC00AC
:1024E000B3825F00131D07019393020113570D413F
:1024F00093D20341130F1F0093864600B387B700A2
:1025000063C42701B3872741939D2700338BB9010B
:1025100003A6060083200B00FB2C160093DF0C4162
:102520003387EC00B3825F00131D07019393020110
:10253000130F1F0013570D4193D20341938646009A
:102540006304EA11B387B70063C42701B387274147
:10255000939D2700338BB90103A6060083200B004F
:10256000FB2C160093DF0C413387EC00B3825F0035
:10257000131D0701939D0201B387B70093864600A0
:1025800093530D4113DB0D41130F1F0063C427014B
:10259000B387274113962700B380C90083AC060098
:1025A00083AF00007BA7FC0193520741330D7700F6
:1025B000B3836201931D0D0113960301B387B70026
:1025C00013DB0D419350064163C42701B3872741B4
:1025D000939C2700B38F990103A7460083A20F00A5
:1025E0007B2D570093530D41B30D6D01338B1300B9
:1025F00013960D01931C0B01B387B700935006414E
:1026000093DF0C4163C42701B38727411397270049
:10261000B382E90003AD860083A30200FB2D7D0099
:1026200013DB0D4133861D00B300FB01931C060133
:10263000939F0001130F3F0013D70C4193D20F411A
:102640009386C600E310EAF12310E400231154003E
:102650009388180013084800B385550163021A31A6
:10266000130408002310C8012311D8016FF09FDD67
:1026700093902400930C1000B3061400374B000015
:1026800063989A33831F0400831E240083A30900E8
:102690001395EF00139DEE00B300F541B30CDD413F
:1026A000B388600133836C0113DEF8401358F340A4
:1026B0002310C40123110401839D06000396260004
:1026C0001397ED009317E6003309B741B382C74073
:1026D000B30A6901B385620113DFFA4013DAF540EA
:1026E0002390E6012391460183AF0600FBAE7F00F5
:1026F0008353040013950E01135D0501B38CA341B0
:10270000239096018358240093D00E019384F4FF04
:102710003383184023916600035E040003582400AD
:1027200093894900B30DCD01338600012310B40114
:102730002311C4009386460013044400E39404F478
:102740006FF08FB913071000E390EA663305240198
:10275000B3052501B3872501138309009388090078
:10276000B740000003180400031E240083A20900E0
:10277000131AD800931FDE00B3030A413389CF41F7
:10278000338B1300B30C1900935AFB4093DDFC40CC
:10279000231054012311B40103160500031D250065
:1027A000931ED600131FDD00B386CE403307AF4122
:1027B00033881600330E1700135AF840935FFE401B
:1027C000231045012311F50183930500039925008A
:1027D000032B0500939CD300931AD900B38D7C4042
:1027E00033862A41338D1D00B30E1600135FFD4062
:1027F00093D6FE402390E5012391D500039807006E
:10280000039E2700131AD8001317DE00B30F0A41E6
:10281000B303C74133891F00B38C1300935AF940A7
:1028200093DDFC40239057012391B7017B2B5B0084
:1028300083A2050003A608007BADC20083AE07009B
:10284000032F03007BA8EE01835C04008356240061
:10285000131E0B01131A0801931F0D0193530E0150
:10286000935D0A0113570B0193DA0F01135B080103
:1028700093520D0133865C01338D5600B38EB30144
:1028800033096701131F0601131E0D01139A0E0170
:10289000931F090113580F0113560E01135D0A010E
:1028A00093DE0F012311C400231004013309A84152
:1028B000330FD641239025012391E50103580400ED
:1028C000035E2400B3865640B38C5C41939A0C019E
:1028D0001396060193D20A01135A0601330D0D0116
:1028E0003389E240B30FBA41B38ECE012310A40165
:1028F0002311D401330F2B013388F301338B624151
:10290000B3037A402310E501231105013307670162
:10291000B38D7D002390E7002391B7019384F4FFEA
:1029200093894900938888001303C300130444006B
:10293000130545009385450093874700E39404E21F
:102940006FF08F998326810013071700130444004A
:10295000B38C5C016392E672832BC104032C810467
:10296000032481068320C10683244106032901062E
:102970008329C105032A8105832A4105032B01050B
:10298000832C4104032D0104832DC103130101078E
:102990006F109057035809001307450023100501D5
:1029A000835229003309A901231155006FF08F9A32
:1029B000939F2A00831804000313240003AE090028
:1029C0001398E800931DE30033061841B3876D4068
:1029D00033076601338967019352F7409355F940F5
:1029E000231054002311B400839A0600039F26008D
:1029F000139AEA00931EEF0033055A41B383EE4168
:102A0000330D6501B3806301935CFD4093D8F040C2
:102A1000239096012391160103A306007B2EC30188
:102A200003580400931D0E0113D60D013307C8404F
:102A30002390E6000359240093570E019384F4FF7A
:102A4000B302F94023915600835A040083552400B1
:102A5000B389F901330F5601338AB7002310E4011B
:102A6000231144019386460013044400E39404F4C4
:102A70006FF08F86B3065400373F0000939A3A00F8
:102A8000B3855600138E0900130DAFAA3745000019
:102A9000831F04008313240083AE0900B380AF03B7
:102AA000B38CA303B388A00013D3F84023106400B1
:102AB0003388AC00935DF8402311B40103960600FF
:102AC000039B26003307A603B307AB03B302A7009B
:102AD00013DFF2402390E601B38FA70093D3FF40AA
:102AE0002391760083900500839C250083A806002F
:102AF0003383A0033388AC03B30DA30013D6FD408A
:102B00002390C500330BA8001357FB402391E50029
:102B1000FBAFD80183AE050083270E00FBA0FE00AB
:102B200093920F01139F000193530F0193DC020155
:102B300033837C008358040013DB0F0113D700019B
:102B400013180301B30EEB40935D084113D61D40EB
:102B500093970E01B38FC84093D007412390F6019D
:102B6000B308EB003388400383522400139F08010D
:102B7000935D0F41B38C7C4013DB1D4093930C019C
:102B80003387624113D603412391E600B30746031E
:102B9000835F0400835024009384F4FF3303F30124
:102BA000B38E18002311D40123106400B308A800C9
:102BB00083D2060013D8F840131F0801935D0F015C
:102BC000338B5D0023906501B38CA70003D72600EB
:102BD00093D3FC4013960301935F0601B300F741C2
:102BE0002391150083D7060003D32600B38929015A
:102BF000B38EB741B3826F002390D6012391560064
:102C0000330E5E011304440093864600938545000D
:102C1000E39004E86FE05FEC032C81046FE0DFEBEE
:102C2000139F1A00938B0900B3095F01139A2A00BE
:102C3000939F3A00B72E000013992900939A4A00F7
:102C4000232E41012320F1032324210323225103B6
:102C500023287101232671012324710123220100FD
:102C6000138C9E99B7470000232691028314040019
:102C7000031B240083A20B0033858403B3058B035D
:102C8000B30DF50093D6FD402310D4003386F50034
:102C90009353F64023117400039F08000397280004
:102CA000B3098F03B30E8703338AF900935FFA40A9
:102CB0002390F8013389FE00935AF940239158017B
:102CC00083140300031B230003A50800B3858403BA
:102CD000B30D8B03B386F50013D6F6402310C30063
:102CE000B383FD0013DFF3402311E30103170E004C
:102CF00083192E00B30E8703338A8903B38FFE0036
:102D000013D9FF4023102E01B30AFA0093D4FA40DE
:102D100023119E00031B0800831D2800B3058B03AD
:102D2000B3868D033386F5009353F6402310780065
:102D3000338FF6001357FF402311E8008319240056
:102D4000232C3101FB225500832E81000325030033
:102D500003AA0E00FB2F4501832AC10003290E00A0
:102D600083A40A00FB2D990083250101032B080091
:102D700083A605007B26DB0093930201131F060147
:102D800013D7020193990F0193920D0193550F01EF
:102D90001359060113DB030113D6020193DA09016B
:102DA0003305BB00338ACA0093D40F0193DD0D01B4
:102DB000B30E2701931605013307274193120A0129
:102DC0003389B441B38FB40113DA020193D30601FE
:102DD000B38ACA401316090103590400139F0E0158
:102DE00013950F01939E0301931F0A01330BBB4000
:102DF00093DE0E4193DF0F41B3834301330A790021
:102E000093140B01B3831F02231044019315070190
:102E1000032AC10113970A01835A810193520501C4
:102E200093590F0193DD054193D50441338BAE03D4
:102E30008324410093960901B383F300B3895900B9
:102E4000139F0201B38B4B01B3823A0113DAF340B3
:102E500023115400330BFB009359FB408322810064
:102E60008323C10013D50641B38949019356064116
:102E7000032A810213560741138714008324010299
:102E8000330BA503135F0F412322E1003387920028
:102E9000B3023901B3894301939402012324E10071
:102EA0008322010113D70401330A1F028324410244
:102EB000330BFB0023263101B38392009352FB4076
:102EC000032B410123287100938848001308480010
:102ED000B309FA0093D3F940338A7200B3824A01EE
:102EE000B3846D039399020193D209011303430044
:102EF000130E4E0013044400338A9603B384F40087
:102F000093D3F440330AFA009354FA40B383930006
:102F1000139A030193540A01B3896503B3039740DD
:102F200033079700239E78FE330A9603B389F9008E
:102F300093D3F940B38E1E02B304FA0013DAF440BF
:102F4000B38943019393090193D40301338A540055
:102F5000239F48FF231EE8FEB3829240B38FAF0346
:102F60003387FE00935EF740231F58FE330515029A
:102F7000B389FF0093D3F940B3847E0033099900ED
:102F8000131A090193520A01330FAF03B30FF5006F
:102F900013D7FF40B3866603B30EFF0013D5FE4080
:102FA000B309A700B38A3A0193930A0193D40301AA
:102FB000B38D9D033389F600135AF940131F0A019C
:102FC000935F0F01B38595033387FD009356F74058
:102FD000939E060113D50E01B389AF40B303F541AB
:102FE000B38A3201231E53FF83294100330666034F
:102FF000338BF500935DFB4013990D01135A0901C2
:10300000832AC102B3827200330FF600935FFF4040
:1030100093950F0113D70501B306EA40B38ED40090
:1030200033054741231FD3FFB384A400231E5EFE54
:10303000231F9EFEE39C3AC36FF08F89B3809A02F0
:1030400023248105378C00002326710537080100F1
:10305000930BFCFFB30EAD0093922400930C000081
:103060001307000023227101B74F0000130DF8FF72
:103070009303450093860400E358408DB384AE402B
:10308000032F41009388C4FF93D7280013FE170035
:10309000334B4F0393050500930B040063140E0498
:1030A000831D04000313240093054500B30B540053
:1030B000338C6D03330663033308FC019354F840EB
:1030C0009398040193D7080133FEA701330FF6014B
:1030D000935DFF4013930D01336C6E002320850137
:1030E000638ABE0603960B0083942B0033885B0033
:1030F000B307660383180800031F2800B30B5800AA
:1031000093858500338E6403B38DF70113D3FD409F
:10311000337CA301338868033306FE019354F640E1
:1031200093980401B3671C0123ACF5FE330F6F03C2
:10313000330EF801935DFE4033F3AD01330CFF0114
:103140001358FC4013160801B364C30023AE95FE68
:10315000E39ABEF8035B0500835B2500930510002E
:103160002310640123117401130E0400630EBAFCD2
:10317000130F040013830C00930400002324D100D8
:1031800093081000B3061A4113FC360003160E0014
:1031900083172E00938503009306000063000C0E36
:1031A000630A1C09930D20006304BC059306030009
:1031B00063442301B3062341939826003388190101
:1031C00083A50300032C0800FBAD850193D80D41B6
:1031D000B38717013306B60193950701131806014B
:1031E00093D7054113560841930820009385430067
:1031F000B386660063C42601B3862641139C26006D
:103200003388890183AD0500032C08007BA88D015C
:10321000935D084133060601B387B701131C06010D
:103220001398070113560C419357084193881800CF
:1032300093854500B386660063C42601B3862641A4
:10324000939D2600338CB90103280C0083AD050043
:103250007BAC0D01935D0C4133068601B387B7014A
:1032600013180601139C0701938818001356084190
:1032700093570C419385450063041A11B386660089
:1032800063C42601B3862641939D26003388B90185
:1032900003AC0500832D08007B2CBC0113580C41A6
:1032A00033068601B387070113980701931D0601B2
:1032B000B3866600935708419385450013DC0D41A2
:1032C0001388180063C42601B3862641939826000C
:1032D00033861901832D060083A805007BA6B8015B
:1032E00093580641330CCC00B3871701931D0C0192
:1032F00093980701B386660013D60D4113DC08418D
:1033000063C42601B386264193972600B38DF90046
:1033100083A8450083A70D00FBA8F80093DD0841B2
:1033200033061601330CBC019317060193180C01E8
:10333000B386660013D6074113DC084163C4260137
:10334000B3862641939D2600B387B90183A88500E3
:1033500083AD0700FBA7B80193D807413306F600F9
:10336000330C1C01931D0C0193083800131806013F
:103370001356084193D70D419385C500E3101AF108
:103380002310CE002311FE0093841400330F5F003E
:103390003303130063089ADA130E0F0023106F0132
:1033A00023117F016FF0DFDDB3062401338726018F
:1033B0002326710523248105B3072701138F0900F4
:1033C000938E0900374D0000831B0400031C24006A
:1033D00083AA09009392DB001316DC00338A724142
:1033E00033098641B30FAA01330BA90193D3FF40E0
:1033F000935DFB40231074002311B4010393060076
:10340000839826001315D300939CD800B30565401C
:10341000B38B1C41338CA501B382AB01135AFC4022
:1034200013D6F240239046012391C60003190700EA
:10343000831F270003AB06009313D900939DDF0081
:10344000338323413385FD41B308A301B30CA501A8
:1034500093DBF84093D5FC40231077012311B7008C
:10346000039C070083922700131ADC001396D200F6
:1034700033098A41B30F5640B303A901B38DAF019D
:1034800013D3F34013D5FD40239067002391A70089
:103490007B2B5B01832A070083A80E00FBAC1A017B
:1034A00083AB070083250F007BACBB008352040075
:1034B000835D2400131A0B0113160C01939F0C015A
:1034C00013590A011353060113550C0193DA0F0126
:1034D00093DB0C0193530B01B38C5A00B388BB01EF
:1034E000B3052301330B7500139C0C0113960801DF
:1034F000939F050193180B01135A0C01935C06016D
:1035000013DC0F0113DB0801231044012311940184
:10351000B3058A41338A6C412310B7002311470158
:1035200003560400835C2400B38D7D41B382524175
:10353000939A0201939F0D0193DB0A0193D50F012A
:10354000B3089B01330CCC00338BAB40338A25414D
:10355000231084012311140133866301B30C43014A
:10356000B3837B40338365402390C600239196014B
:1035700033057500330969002390A70023912701C3
:103580009384F4FFB3891900B38ECE01330F0F017A
:1035900013044400938646001307470093874700AF
:1035A000E39404E26FE0DFB2B3062401338726011F
:1035B0002326710523248105B3072701138F0900F2
:1035C000938E090037450000831B0400031C240070
:1035D00083AA09009393DB00131BDC00B3887341BB
:1035E00033068B41B385A800B30FA60093D2F540F4
:1035F00013D3FF402311640023105400839D060061
:10360000039D2600139ADD00931CDD003309BA41A7
:10361000B38BAC41330CA900B383AB00135BFC400C
:1036200093D8F3402390660123911601831F07006E
:103630008312270003A606001393DF009395D200A0
:10364000B30DF341338D5540338AAD00B30CAD005B
:103650001359FA4093DBFC40231027012311770113
:10366000039C070083932700131BDC00939FD30068
:10367000B3088B41B3827F403383A800B385A20097
:10368000935DF34013DDF5402390B7012391A7012B
:103690007B265601832A070003AA0E00FBAC4A01D1
:1036A00003A90700832B0F007B2C790183520400B0
:1036B0000353240093130601131B0C01939F0C0169
:1036C00093DD0301135D0B01935A0C0193D50F0198
:1036D00013DA0C0113560601B38CB200B308430190
:1036E0003389AD01B30B5601139C0C01139B0801E8
:1036F000931F090193980B01935C0B0193530C01E9
:1037000013D90F0193DB08012310740023119401D6
:10371000338C2341B3837C4123108701231177002D
:10372000035B0400835C240033034341B382B24053
:1037300093950201931F030113DA050193D30F013F
:10374000B3889B0133096901B30BCA40338CA34191
:103750002310240123111401338B7A01B38C8D01C2
:10376000B30A5A41B38DB341239066012391960168
:1037700033065601330DBD012390C7002391A701E5
:103780009384F4FFB3891900B38ECE01330F0F0178
:1037900013044400938646001307470093874700AD
:1037A000E39404E26FE0DF92170401000324C41FD6
:1037B00083290400130670019305100083A6C90035
:1037C00017F500001305C529EF10D04A032A04009D
:1037D00093051000130690018326CA0017F5000018
:1037E00013058529EF101049832A0400032481065C
:1037F0008320C10683A5CA0083244106032901064C
:103800008329C105032A8105832A4105032B01056C
:10381000832C4104032D0104832DC1031305A00053
:10382000130101076F1010261300000013000000A1
:10383000130101FE232C810093073500232E110074
:10384000130405001395270063800606630206042F
:1038500083A0060063EEA00223A0A60013050600C5
:103860008320C101232085000324810197020100E8
:1038700083A2421317030100032343132322B5003D
:1038800023265500232465001301010267800000F0
:1038900023A0A600130500008320C1010324810199
:1038A00013010102678000002326B100EF001065BC
:1038B0008325C100E31605FA130500006FF0DFFD54
:1038C000130101FE232C8100232E11001304050097
:1038D0006382C50203278400930704000324810147
:1038E0008320C10113050600130610001301010215
:1038F0006FD01FDF232A910093840500638805069B
:103900000325050023282101232631011315250055
:1039100013890600EF00905E930905006308050A0D
:10392000032784009307040093060900938504008D
:1039300013061000EFD0DFDA032604009385090098
:103940001385040013162600EF20C07E0324810196
:1039500083244101032901018320C101138509004A
:103960008329C100130101026F00105A970401005E
:1039700083A4840383A00400130670019305100040
:1039800083A6C00017F500001305C510EF10902E98
:1039900083A30400930510001306100183A6C3003F
:1039A00017F5000013058510EF10D02C83A5040037
:1039B000832441011305A00083A5C50003248101D0
:1039C0008320C101130101026F10D00B1704010005
:1039D000032484FD8327040013067001930510005F
:1039E00083A6C70017F500001305850DEF1090287A
:1039F00083220400930510001306800183A6C200F1
:103A000017F500001305450DEF10D0260323040021
:103A100083244101032901018325C3008329C100B7
:103A20001305A0006FF09FF91300000013000000C1
:103A3000130101FF23248100232611001304050034
:103A40006384C502032784009307040003248100D4
:103A50008320C10013050600930610001306100012
:103A6000130101016FD0DFC7232291009384050069
:103A70006382050603250500232021011315250077
:103A8000EF00D047130905006306050A03278400E9
:103A9000930704009385040093061000130610009A
:103AA000EFD01FC40326040093050900138504000A
:103AB00013162600EF2000680324810083244100B0
:103AC0008320C1001305090003290100130101012E
:103AD0006F0090439704010083A404ED83A00400C9
:103AE000130670019305100083A6C00017F50000AF
:103AF000130545FAEF10101883A304009305100076
:103B00001306100183A6C30017F50000130505FA7C
:103B1000EF10501683A50400832441001305A00074
:103B200083A5C500032481008320C1001301010186
:103B30006F10407517040100032404E78327040075
:103B4000130670019305100083A6C70017F5000047
:103B5000130505F7EF1010128322040093051000DF
:103B60001306800183A6C20017F500001305C5F6F1
:103B7000EF105010032304008324410003290100A7
:103B80008325C3001305A0006FF0DFF913000000C8
:103B90006780000013000000130000001300000005
:103BA0009377150093063000130750001308100098
:103BB000639407189307050013D6F701B302F600C4
:103BC00093D7124013D3F70193F51700B303F30013
:103BD0006394050893D7134093D8F70193FE170019
:103BE000338EF800639A0E0693571E4013DFF701D9
:103BF00013F61700B30FFF006310060693D71F409C
:103C000093D2F70193F317003383F2006396030412
:103C10009357134093D5F70113FE1700B388F500AF
:103C2000631C0E0293D7184093DEF70193FF170031
:103C3000338FFE0063920F0293571F4013D6F70194
:103C400013F31700B302F6006318030093D7124072
:103C500093F31700E38203F6B3E5D70263920506F8
:103C6000B3C7D702B3E8D702639C0804B3C7D7022F
:103C700033EED70263160E04B3C7D702B3EED702F2
:103C800063900E04B3C7D70233EFD702631A0F0253
:103C9000B3C7D702B3EFD70263940F02B3C7D702FB
:103CA00033E6D702631E0600B3C7D702B3E2D702DA
:103CB00063980200B3C7D70233E3D702E30203FAE3
:103CC000B3E3E70263920306B3C7E702B3E5E70293
:103CD000639C0504B3C7E702B3E8E70263960804F0
:103CE000B3C7E70233EEE70263100E04B3C7E7027F
:103CF000B3EEE702639A0E02B3C7E70233EFE702BF
:103D000063140F02B3C7E702B3EFE702639E0F002D
:103D1000B3C7E70233E6E70263180600B3C7E7025A
:103D2000B3E2E702E38202FA635CF80013051500D0
:103D300093771500E38007E8930705006FF0DFF144
:103D4000678000000000000000000000000000008C
:103D50001308000063C6051263DC0600B337C00019
:103D6000B306D0401348F8FFB386F6403306C04090
:103D7000930806001307050013830500639A060ED7
:103D800063F4C516B70701006364F622B7070001A4
:103D9000930680016374F60093060001B737018033
:103DA000335ED600938707AFB387C70183C7070089
:103DB000130E0002B387D700B306FE40630CFE006B
:103DC0003393D500B357F500B318D60033E367003B
:103DD0003317D50013D608013355C3029396080153
:103DE00093D60601935707013373C302B385A60226
:103DF00013130301B3E7670063FCB700B387F80050
:103E00001303F5FF63E4170163E6B74013050300EE
:103E1000B387B740B3D5C70213170701135707017C
:103E2000B3F7C702B386B602939707013367F7006B
:103E3000637ED7003387E8009387F5FF6366170139
:103E40009385E5FF6364D70093850700131505018B
:103E50003365B50093050000630A0800B337A0007E
:103E6000B305B040B385F5403305A040678000003E
:103E700063F4D50293050000130500006FF0DFFD29
:103E8000B337A000B305B040B385F5403305A0407B
:103E90001308F0FF6FF05FECB707010063E8F61E50
:103EA000B70700019308800163F4F600930800014E
:103EB000B737018033D71601938707AFB387E70081
:103EC00003C707009307000233071701B388E740D1
:103ED0006396E71C63E4B6303335C500133515002F
:103EE000930500006FF05FF7630C060CB707010045
:103EF000637CF62C133306101333130013133300B3
:103F0000B3566600B7370180938707AFB387D700F2
:103F100083C6070093070002B3866600B38ED740BE
:103F20006394D70CB386C5401353060113160601DC
:103F3000135606019305100033D566029357070107
:103F4000B3F66602330EC50293960601B3E7D700B7
:103F500063FCC701B387F8009306F5FF63E417011C
:103F600063E4C72B13850600B387C741B3D6670246
:103F70001317070113570701B3F767023386C60209
:103F8000939707013367F700637EC7003387E80024
:103F90009387F6FF636617019386E6FF6364C700A5
:103FA00093860700131505013365D5006FF0DFEA2E
:103FB0009336061093B61600939636006FF01FDE08
:103FC000B737018093060000938707AFB387D70008
:103FD00083C607001303000093070002B386660040
:103FE000B38ED740E380D7F4B318D60133DED500C3
:103FF00013D30801B3576E02139608011356060136
:10400000B356D5003317D501B395D501B3E6B60045
:1040100093D50601337E6E023305F602131E0E01A0
:10402000B3E5C50163FEA500B385B800138EF7FFA5
:1040300063E4151D63F2A51C9387E7FFB3851501A3
:10404000B385A54033D565029396060193D6060144
:10405000B3F56502330EA60293950501B3E6B600EB
:1040600063FEC601B386D8009305F5FF63EE16170D
:1040700063FCC6171305E5FFB38616019395070188
:10408000B386C641B3E5A5006FF01FEB93B80610E9
:1040900093B81800939838006FF09FE1B35EE60084
:1040A000B3961601B3EEDE0033D3E50013DF0E0145
:1040B000B357E303139E0E01B3951501135E0E0172
:1040C0003357E5003367B7009356070133161601DF
:1040D0003373E303B305FE0213130301B3E6660073
:1040E00063FEB600B386DE001383F7FF63EAD611E2
:1040F00063F8B6109387E7FFB386D601B386B64060
:10410000B3D5E6031317070113570701B3F6E60308
:104110003303BE02939606013367D700637E6700C0
:104120003387EE009386F5FF6364D70D6372670CE7
:104130009385E5FF3307D70193970701370F0100F8
:10414000B3E7B7009306FFFFB3F5D70013DE07010F
:10415000B376D60013560601B38ED50233076740F7
:10416000B306DE0213D30E01B385C502B385D500B5
:10417000B305B300330ECE0263F4D500330EEE0167
:1041800093D60501B386C601636AD7026308D700D8
:1041900013850700930500006FF01FCCB7060100E0
:1041A0009386F6FF33F7D50013170701B3FEDE0041
:1041B000331515013307D701E37CE5FC1385F7FFC1
:1041C000930500006FF05FC9B7070001637AF6043A
:1041D00093560601130300016FF0DFD29305000030
:1041E000130510006FF05FC7138505006FF01FE91E
:1041F000938506006FF05FF493070E006FF05FE4A5
:10420000930703006FF09FEF1305E5FFB3871701D6
:104210006FF09FD51305E5FFB38717016FF05FBF00
:1042200093568601130380016FF0DFCD130806005B
:1042300093080500138705006390060E63FEC51200
:10424000B7070100636EF61EB707000193068001F1
:104250006374F60093060001B73701803353D6002C
:10426000938707AFB387670083C707001303000274
:10427000B387D700B306F340630CF3003397D50040
:10428000B357F5003318D60033E7E700B318D5006D
:10429000135608013355C7029316080193D6060139
:1042A00093D708013377C702B385A6021317070116
:1042B000B3E7E70063FCB700B307F8001307F5FFA7
:1042C00063E4070163E0B73E13050700B387B74017
:1042D00033D7C7029398080193D80801B3F7C702F0
:1042E000B386E60293970701B3E8F80063FED800AF
:1042F000B30818019307F7FF63E608011307E7FF08
:1043000063E4D80013870700131505013365E50042
:10431000930500006780000063F8D5009305000056
:104320001305000067800000B707010063E8F61E70
:10433000B70700011308800163F4F60013080001B9
:10434000B737018033D70601938707AFB387E700FC
:1043500003C7070093070002330707013388E740CC
:104360006396E71C63E4B6303335C500133515009A
:104370009305000067800000630C060CB70701007E
:10438000637CF62C1337061013371700131737000A
:10439000B356E600B7370180938707AFB387D700DE
:1043A00083C7070093060002B387E700B38EF64089
:1043B0006394F60CB387C5409356060113160601A5
:1043C000135606019305100033D5D70213D7080101
:1043D000B3F7D7023303C50293970701B367F7001A
:1043E00063FC6700B307F8001307F5FF63E40701F8
:1043F00063E4672A13050700B387674033D7D70202
:104400009398080193D80801B3F7D7023306C7027F
:1044100093970701B3E8F80063FEC800B3081801DA
:104420009307F7FF63E608011307E7FF63E4C8009B
:1044300013870700131505013365E5006780000049
:104440009336061093B61600939636006FF0DFE0B1
:10445000B737018093060000938707AFB387D70073
:1044600083C707001307000093060002B387E70025
:10447000B38EF640E380F6F43318D60133D3F5005B
:1044800093560801335ED30213160801B395D50184
:1044900013560601B357F500B3E7B70013D707016A
:1044A000B318D5013373D302B305C6031313030145
:1044B00033676700637EB7003307E8001305FEFF2C
:1044C0006364071D6372B71C130EEEFF3307070109
:1044D0003307B7403355D7029397070193D70701A6
:1044E0003377D7023303A60213170701B3E7E700B8
:1044F00063FE6700B307F8001307F5FF63EE0717C5
:1045000063FC67161305E5FFB387070193150E01DA
:10451000B3876740B3E5A5006FF01FEB13B8061033
:1045200013381800131838006FF09FE1335EE6006F
:10453000B3960601336EDE00B3D8E500935E0E013C
:10454000B3D7D80313130E01B39505011353030119
:104550003357E5003367B70093560701331606015A
:10456000B3F8D803B305F30293980801B3E6160134
:1045700063FEB600B306DE009388F7FF63EAC61158
:1045800063F8B6109387E7FFB386C601B386B640DB
:10459000B3D5D6031317070113570701B3F6D60394
:1045A000B308B302939606013367D700637E170101
:1045B0003307EE009386F5FF6364C70D6372170D32
:1045C0009385E5FF3307C70193970701B70E0100F5
:1045D000B3E7B7009386FEFFB3F5D70013D3070107
:1045E000B376D60013560601338ED5023307174132
:1045F000B306D30293580E01B385C502B385D50027
:10460000B385B8003303C30263F4D5003303D30189
:1046100093D60501B3866600636AD7026308D700A4
:10462000138507009305000067800000B7060100AE
:104630009386F6FF33F7D50013170701337EDE00AC
:10464000331505013307C701E37CE5FC1385F7FF4C
:104650009305000067800000B7070001637AF60445
:1046600093560601130700016FF0DFD29305000097
:104670001305100067800000130507006FF01FE9A5
:10468000938506006FF05FF4130E05006FF05FE492
:10469000938708006FF09FEF1305E5FFB3870701CD
:1046A0006FF09FD51305E5FFB38707016FF01FC2B9
:1046B00093568601130780016FF0DFCD9305050047
:1046C0009306000013060000130500006F109049C8
:1046D000130101FF9305000023248100232611000C
:1046E00013040500EF10905183A781F56384070040
:1046F000E780070013050400EFB09FFB930505005A
:1047000003A541F46F0000019305050003A541F4E2
:104710006F109075130101FD232E31012326110224
:104720002324810223229102232021039387B500B1
:1047300013076001930905006360F7089307000100
:1047400063E0B720EF000078930780019305200015
:104750009304000113898182B307F90003A4470081
:10476000138787FF6300E434832744008326C40053
:104770000326840093F7C7FFB307F40003A747009D
:104780002326D60023A4C60013671700138509004B
:1047900023A2E700EF004073130584008320C102C9
:1047A0000324810283244102032901028329C101D8
:1047B000130101036780000093F487FF63C20718A9
:1047C00063E0B418EF0000709307701F63F6973E24
:1047D00093D79400638E071613074000636CF7327B
:1047E00093D7640093859703138887031396350046
:1047F000138981823306C90003244600130686FF0D
:10480000630886021305F0006F0040018326C40090
:1048100063560728630ED6001384060083274400DE
:1048200093F7C7FF33879740E352E5FE93050800EF
:104830000324090193088900630E1425832744008B
:104840009306F00093F7C7FF3387974063CCE636B3
:10485000232A190123281901635007341307F01F75
:10486000032549006368F72413F787FF13078700C0
:104870003307E9008326070013D65700930710007B
:10488000B397C7003365F500930787FF2326F4002D
:104890002324D4002322A9002320870023A68600F6
:1048A00093D72540130610003316F600636AC50A35
:1048B000B377A600639407021316160093F5C5FF9D
:1048C000B377A60093854500639A07001316160078
:1048D000B377A60093854500E38A07FE1308F0002E
:1048E0001393350033036900130503008327C500C4
:1048F000138E05006302F52403A747001384070005
:1049000083A7C7001377C7FFB30697406342D82435
:10491000E3C206FE3307E400832647000326840033
:104920001385090093E616002322D7002326F600FC
:1049300023A4C700EF004059130584006FF01FE661
:104940009307C00023A0F900130500006FF01FE5D6
:1049500013060020930500041308F0036FF05FE9CD
:1049600003248900232861018327440013FBC7FF28
:1049700063689B0033079B409307F00063CAE70C12
:1049800023229101232A510103A7C1F383AA41F5F0
:10499000232C4101232671019307F0FF330A6401A0
:1049A000B38A54016306F73CB71700009387F700FA
:1049B000B38AFA00B7F7FFFFB3FAFA0093850A004B
:1049C00013850900EF10804D9307F0FF930B05004E
:1049D000630AF54423248101636E4523138C81F619
:1049E00083250C00B385BA002320BC001387050083
:1049F0006316AA2A931745016392072A832B89001D
:104A0000B3075B0193E7170023A2FB0083A601F520
:104A100063F4B60023A8B1F483A6C1F463F4B6002E
:104A200023A6B1F4032C810013840B0093F7C7FF76
:104A30003387974063EA97389307F00063D6E738E7
:104A4000032A8101832A4101832BC100832C410069
:104A500093E714002322F400B30494002324990064
:104A6000136717001385090023A2E400EF00C04577
:104A70008320C1021305840003248102032B01015A
:104A800083244102032901028329C1011301010387
:104A900067800000032549006FF09FE00326840033
:104AA0006FF09FCD03A4C70093852500E38287D8CC
:104AB0006FF09FCB13D797009306400063F2E61484
:104AC0009306400163E4E6321306C7059306B70573
:104AD000131636003306C90003270600130686FFA7
:104AE0006318E6006F004029032787006308E6008B
:104AF0008326470093F6C6FFE3E8D7FE0326C700E8
:104B00002326C4002324E4002324860023268700D0
:104B10006FF01FD9130740016378F71013074005A2
:104B20006364F72E93D7C4009385F7061388E706CE
:104B3000139635006FF0DFCB130E1E0093773E0007
:104B400013058500638007108327C5006FF09FDA87
:104B50000326840093E514002322B4002326F600E4
:104B600023A4C700B3049400232A990023289900A2
:104B700093E7160023A6140123A4140123A2F40032
:104B80003307E400138509002320D700EF00C0336A
:104B9000130584006FF09FC0B307F40003A747001C
:104BA000138509001367170023A2E700EF00C03147
:104BB000130584006FF09FBE93D534009387840063
:104BC0006FF05FB993E614002322D400B30494007D
:104BD000232A9900232899009366170023A614011D
:104BE00023A4140123A2D400B307F4001385090001
:104BF00023A0E700EF00402D130584006FF01FBADB
:104C000013D767001306970393068703131636001E
:104C10006FF05FEC630C240703248900032C8100F0
:104C2000832744006FF09FE09385C7051388B7057D
:104C3000139635006FF0DFBB832783009385F5FF64
:104C4000639E672693F73500130383FFE39607FE01
:104C5000032749009347F6FFB3F7E7002322F90043
:104C600013161600E3EEC7CEE30C06CE3377F6003C
:104C7000631A0700131616003377F600130E4E0062
:104C8000E30A07FE93050E006FF09FC5138C81F6B3
:104C900003270C003387EA002320EC0083A6C1F32E
:104CA0009307F0FF6386F618B3874B41B387E7009D
:104CB0002320FC0093FC7B00638C0C0CB38B9B418A
:104CC000B717000093878700938B8B00B3859741BC
:104CD000B38A5B01B38555419395450113DA4501CC
:104CE00093050A0013850900EF10401B9307F0FF9E
:104CF0006300F51833057541B30A450103270C001D
:104D00002324790193E71A00B305EA002320BC00AD
:104D100023A2FB00E30C24CF9306F00063F0660BA4
:104D20000327440093074BFF93F787FF1377170080
:104D30003367F7002322E400130650003307F40022
:104D40002322C7002324C70063E6F60083A74B0095
:104D50006FF0DFCB9305840013850900EF10D010AE
:104D6000832B890083250C0083A74B006FF01FCA9B
:104D7000938A0A016FF09FC493D6264093071000D0
:104D8000B397D7003365F5002322A9006FF05FD7F2
:104D9000B3855B01B305B0409395450113DA450136
:104DA00093050A0013850900EF10400F9307F0FFE9
:104DB000E312F5F4130A00006FF05FF4032C810096
:104DC0009307100023A2FB0013850900EF00C00F1A
:104DD00013050000032A8101832A4101032B0101ED
:104DE000832BC100832C41006FF05F9B930640052D
:104DF00063E4E60413D7C7001306F7069306E70635
:104E0000131636006FF01FCD130740156364F704C7
:104E100093D7F40093858707138877071396350097
:104E20006FF01F9D03248900832744006FF01FC08B
:104E300023AE71F36FF01FE89306401563E4E604B8
:104E400013D7F70013068707930677071316360064
:104E50006FF05FC8130740556364F70493D72401CC
:104E60009385D7071388C707139635006FF05F98AF
:104E7000938C8CFFB38A9A01B38A7A41130A00009B
:104E80006FF0DFE79306405563E4E60213D727018E
:104E90001306D7079306C707131636006FF09FC394
:104EA0001306803F9305F0071308E0076FF05F9447
:104EB0001306803F9306E0076FF0DFC183274900A8
:104EC0006FF01FDA678000006780000013050000A4
:104ED00067800000B7A50080138601C3938585A471
:104EE000138501C46F000041130101FF83254500B4
:104EF000232481002322910023261100138401F929
:104F00009304050063848500EF40103483A584007A
:104F1000930784066386F50013850400EF40D032C2
:104F200083A5C4001304040D638E8500032481004F
:104F30008320C10013850400832441001301010173
:104F40006F4090308320C1000324810083244100FE
:104F50001301010167800000130500006780000055
:104F6000130101FE232C8100B7570080138401F93F
:104F7000938747ED232E1100232A91002328210136
:104F8000232631012324410123ACF1F413068000D0
:104F900093074000930500001305C4052326F40081
:104FA00023200400232204002324040023220406D7
:104FB00023280400232A0400232C0400EF10C00936
:104FC000B7070100375A0080B76900803769008051
:104FD000B7640080130A0A7E938949841309C98C37
:104FE00093844494938797001306800093050000F0
:104FF0001305440C232044032322340323242403D5
:1050000023269402232AF406232E84002324040654
:1050100023260406232804062326040C232C040636
:10502000232E040623200408EF100003B707020014
:1050300013078406938727011305C4121306800003
:105040009305000023244409232634092328240936
:10505000232A9408232EF40C2322E4082328040C8A
:10506000232A040C232C040C232A04122320040ECC
:105070002322040E2324040EEF00107E9307040D58
:105080002328440F232A340F232C240F232E940E7D
:105090008320C1012326F40E0324810183244101CE
:1050A000032901018329C100032A810013010102A0
:1050B0006780000083A781F5130101FE23263101DB
:1050C000232E1100232C8100232A91002328210163
:1050D000930905006386070E138901C39304F0FF4B
:1050E00083274900032489009387F7FF63D80700CB
:1050F0006F00000813048406638C97060317C4002E
:105100009387F7FFE31807FEB707FFFF93871700A2
:105110002326F40023220406232004002324040071
:105120002322040023280400232A0400232C040043
:1051300013068000930500001305C405EF00D0712D
:1051400023280402232A040223220404232404041F
:105150008320C1011305040003248101832441013C
:10516000032901018329C1001301010267800000A6
:105170000324090063060400130904006FF05FF6BE
:105180009305C01A13850900EFF0CFD8130405006A
:10519000630C05021305C50093074000232004009B
:1051A0002322F4002324A4001306001A9305000010
:1051B000EF00906A23208900130904006FF05FF26A
:1051C000EFF01FDA6FF05FF1232009009307C000B2
:1051D00023A0F9006FF0DFF78327450363840700FE
:1051E0006780000003A781F5B7570080938787EE9B
:1051F000232AF502E31607FE6FF09FD667800000B2
:1052000067800000B7550080138601C39385C5EC05
:10521000130500006F00000EB7550080138601C310
:10522000938585F5130500006F00C00C130101FE86
:10523000232C8100232E11001304050063060500B2
:1052400083274503638C07001305040003248101B1
:105250008320C101130101026F0080372326C100A2
:105260002324B100EFF05FF713050400032481014C
:105270000326C100832581008320C101130101029F
:105280006F000035130101FE232A910083A441F42D
:10529000232C8100232E1100130405001386050022
:1052A0006386040083A74403638007029305040018
:1052B000032481018320C10113850400832441015B
:1052C000130101026F00C030138504002326B100D2
:1052D000EFF09FF093050400032481010326C10031
:1052E0008320C101138504008324410113010102BD
:1052F0006F00002E130101FD23202103232E310115
:10530000232C4101232A5101232861012326710105
:10531000232611022324810223229102130B05006C
:10532000938B0500930A0600130A000093091000EE
:105330001309F0FF83A44A0003A48A009384F4FFB6
:1053400063C804028357C40063FEF9008317E400B6
:105350009305040013050B0063862701E7800B000B
:10536000336AAA009384F4FF13048406E39C24FDAB
:1053700083AA0A00E3900AFC8320C102032481026D
:1053800083244102032901028329C101832A4101A7
:10539000032B0101832BC10013050A00032A81019D
:1053A0001301010367800000130101FB2320210585
:1053B0003389C6029307C1012322F102930710002B
:1053C0002324810423229104232E3103232EB100B0
:1053D000232611042324F102232021032326210361
:1053E0009309060013840600930405009305070043
:1053F0006306050083274503638607068397C50078
:10540000139727016342070203A74506B7E6FFFF8C
:105410009386F6FF37260000B3E7C7003377D7003F
:105420002396F50023A2E506130641021385040026
:10543000EF405025630805008327C1023309F94076
:10544000335439038320C104130504000324810469
:1054500083244104032901048329C10313010105A5
:10546000678000002326E100EFF01FD78325C100ED
:105470006FF0DFF8130101FB23229104B384C5020E
:10548000232E310383A941F49307C1012322F102A2
:1054900093071000232481042320210523261104CF
:1054A000232EA1002324F10223209102232691021E
:1054B000138905001304060093850600638609001E
:1054C00083A74903638607068397C50013972701BF
:1054D0006342070203A74506B7E6FFFF9386F6FF80
:1054E00037260000B3E7C7003377D7002396F500CF
:1054F00023A2E5061306410213850900EF40901828
:10550000630805008327C102B384F44033D4240325
:105510008320C1041305040003248104832441046F
:10552000032901048329C1031301010567800000D9
:10553000138509002326D100EFF01FCA8325C1007F
:105540006FF09FF8130101FC2324C1022326D1022E
:105550002328E102232AF102232C0103232E110325
:10556000138605008325850093068102232E1100F2
:105570002326D100EF10803F8320C10113010104D5
:105580006780000003A341F4130101FC2324C1023E
:105590002326D1022322B1022328E102232AF10289
:1055A000232C0103232E110383258300930641023C
:1055B0001306050013050300232E11002326D10036
:1055C000EF10C03A8320C10113010104678000007D
:1055D000130101FE232C8100232E1100130405006A
:1055E000630605008327450363800706832786003B
:1055F0009387F7FF2324F60063DC07000327860167
:1056000063CAE70293F7F50F1307A0006384E7026C
:105610008327060013F5F50F138717002320E600F4
:105620002380B7008320C1010324810113010102FB
:105630006780000013050400032481018320C10159
:10564000130101026F0080302326C1002324B10022
:10565000EFF09FB80326C100832581006FF01FF98A
:10566000130101FE232A210103A941F4232C9100F7
:10567000232E1100930405006306090083274903C4
:105680006388070683A785009387F7FF23A4F500A7
:1056900063DC070003A7850163CCE70293F7F40FEF
:1056A0001307A0006386E70283A7050013F5F40F34
:1056B0001387170023A0E500238097008320C101F2
:1056C0008324810103294101130101026780000045
:1056D0008320C1011386050013050900938504008A
:1056E0000329410183248101130101026F00002677
:1056F000130509002326B100EFF01FAE8325C1007A
:105700006FF05FF8130101FC232C810213040500E4
:1057100013850500232A9102232E1102938405008C
:10572000EF00903BB7370180938707BF2324F10236
:10573000930710002326F102032744039307010275
:1057400093061500232AF1009307200023209102DD
:105750002322A102232ED100232CF10083258400D3
:10576000630007068397C50013972701634207026A
:1057700003A74506B7E6FFFF9386F6FF372600002E
:10578000B3E7C7003377D7002396F50023A2E506D9
:105790001306410113050400EF40C06E8320C103CE
:1057A00003248103133515003305A0401375B5009C
:1057B000832441031305F5FF1301010467800000F2
:1057C000130504002326B100EFF01FA18325C100BB
:1057D0006FF05FF99305050003A541F46FF09FF2A8
:1057E000130101FF23248100138405008395E50044
:1057F00023261100EF00006463400502832704059F
:105800008320C100B387A7002328F4040324810068
:1058100013010101678000008357C40037F7FFFFC1
:105820001307F7FFB3F7E7008320C1002316F40046
:1058300003248100130101016780000013050000AB
:10584000678000008397C500130101FE232C8100AF
:10585000232A91002328210123263101232E110020
:1058600013F70710138405009304050013090600BD
:10587000938906006310070437F7FFFF1307F7FF4C
:10588000B3F7E7008315E4002316F4000324810135
:105890008320C10193860900130609008329C100F2
:1058A000032901011385040083244101130101022E
:1058B0006F0080648395E5009306200013060000C6
:1058C000EF00C0508317C4006FF01FFB130101FFEE
:1058D00023248100138405008395E500232611000D
:1058E000EF00C04E9307F0FF6308F5028357C40032
:1058F000371700008320C100B3E7E7009397070143
:1059000093D707412328A4042316F400032481001D
:1059100013010101678000008357C40037F7FFFFC0
:105920001307F7FFB3F7E7009397070193D70741F2
:105930008320C1002316F400032481001301010118
:10594000678000008395E5006F004036130101FE7B
:10595000232C8100232A910023282101232E1100CA
:10596000130905009384050013040600630605006F
:105970008327450363800716832784010317C40028
:105980002324F400937787006380070883270401AA
:10599000638C0706232631019316270193F9F40F30
:1059A00093F4F40F63D80608032704008326440108
:1059B000B307F74063D8D70A83268400130617007D
:1059C0002320C4009386F6FF2324D400230037014C
:1059D00003274401938717006302F70C8357C40021
:1059E00093F71700639A070C8329C1008320C10134
:1059F000032481010329010113850400832441014B
:105A000013010102678000009305040013050900DB
:105A1000EF00000E631E05080317C40023263101A2
:105A2000832704019316270193F9F40F93F4F40FDD
:105A3000E3CC06F68326440637E6FFFFB7250000D1
:105A40003367B7001306F6FFB3F6C6002316E4006B
:105A5000032704002322D40683264401B307F7401A
:105A6000E3CCD7F49305040013050900EF40C033DD
:105A7000631E050203270400832684009307100099
:105A8000130617009386F6FF2320C4002324D400B6
:105A90002300370103274401E312F7F493050400C0
:105AA00013050900EF404030E30005F48329C100ED
:105AB0009304F0FF6FF09FF39307A000E396F4F2D6
:105AC0009305040013050900EF40002EE30E05F0D6
:105AD0006FF0DFFDEFF04FF06FF01FEA9307050066
